{
  "contractName": "ScoopMarket",
  "abi": [
    {
      "constant": true,
      "inputs": [
        {
          "name": "_interfaceId",
          "type": "bytes4"
        }
      ],
      "name": "supportsInterface",
      "outputs": [
        {
          "name": "",
          "type": "bool"
        }
      ],
      "payable": false,
      "stateMutability": "view",
      "type": "function"
    },
    {
      "constant": true,
      "inputs": [],
      "name": "name",
      "outputs": [
        {
          "name": "",
          "type": "string"
        }
      ],
      "payable": false,
      "stateMutability": "view",
      "type": "function"
    },
    {
      "constant": true,
      "inputs": [
        {
          "name": "_tokenId",
          "type": "uint256"
        }
      ],
      "name": "getApproved",
      "outputs": [
        {
          "name": "",
          "type": "address"
        }
      ],
      "payable": false,
      "stateMutability": "view",
      "type": "function"
    },
    {
      "constant": true,
      "inputs": [],
      "name": "totalSupply",
      "outputs": [
        {
          "name": "",
          "type": "uint256"
        }
      ],
      "payable": false,
      "stateMutability": "view",
      "type": "function"
    },
    {
      "constant": true,
      "inputs": [],
      "name": "InterfaceId_ERC165",
      "outputs": [
        {
          "name": "",
          "type": "bytes4"
        }
      ],
      "payable": false,
      "stateMutability": "view",
      "type": "function"
    },
    {
      "constant": false,
      "inputs": [
        {
          "name": "_from",
          "type": "address"
        },
        {
          "name": "_to",
          "type": "address"
        },
        {
          "name": "_tokenId",
          "type": "uint256"
        }
      ],
      "name": "transferFrom",
      "outputs": [],
      "payable": false,
      "stateMutability": "nonpayable",
      "type": "function"
    },
    {
      "constant": true,
      "inputs": [
        {
          "name": "_owner",
          "type": "address"
        },
        {
          "name": "_index",
          "type": "uint256"
        }
      ],
      "name": "tokenOfOwnerByIndex",
      "outputs": [
        {
          "name": "",
          "type": "uint256"
        }
      ],
      "payable": false,
      "stateMutability": "view",
      "type": "function"
    },
    {
      "constant": false,
      "inputs": [],
      "name": "unpause",
      "outputs": [],
      "payable": false,
      "stateMutability": "nonpayable",
      "type": "function"
    },
    {
      "constant": false,
      "inputs": [
        {
          "name": "_from",
          "type": "address"
        },
        {
          "name": "_to",
          "type": "address"
        },
        {
          "name": "_tokenId",
          "type": "uint256"
        }
      ],
      "name": "safeTransferFrom",
      "outputs": [],
      "payable": false,
      "stateMutability": "nonpayable",
      "type": "function"
    },
    {
      "constant": true,
      "inputs": [
        {
          "name": "_tokenId",
          "type": "uint256"
        }
      ],
      "name": "exists",
      "outputs": [
        {
          "name": "",
          "type": "bool"
        }
      ],
      "payable": false,
      "stateMutability": "view",
      "type": "function"
    },
    {
      "constant": true,
      "inputs": [
        {
          "name": "_index",
          "type": "uint256"
        }
      ],
      "name": "tokenByIndex",
      "outputs": [
        {
          "name": "",
          "type": "uint256"
        }
      ],
      "payable": false,
      "stateMutability": "view",
      "type": "function"
    },
    {
      "constant": true,
      "inputs": [],
      "name": "paused",
      "outputs": [
        {
          "name": "",
          "type": "bool"
        }
      ],
      "payable": false,
      "stateMutability": "view",
      "type": "function"
    },
    {
      "constant": true,
      "inputs": [
        {
          "name": "_tokenId",
          "type": "uint256"
        }
      ],
      "name": "ownerOf",
      "outputs": [
        {
          "name": "",
          "type": "address"
        }
      ],
      "payable": false,
      "stateMutability": "view",
      "type": "function"
    },
    {
      "constant": true,
      "inputs": [
        {
          "name": "",
          "type": "uint256"
        }
      ],
      "name": "scoops",
      "outputs": [
        {
          "name": "name",
          "type": "string"
        },
        {
          "name": "timestamp",
          "type": "uint256"
        },
        {
          "name": "imageHash",
          "type": "string"
        },
        {
          "name": "author",
          "type": "address"
        },
        {
          "name": "price",
          "type": "uint256"
        },
        {
          "name": "forSale",
          "type": "bool"
        },
        {
          "name": "metaDataHash",
          "type": "string"
        },
        {
          "name": "requestor",
          "type": "address"
        }
      ],
      "payable": false,
      "stateMutability": "view",
      "type": "function"
    },
    {
      "constant": true,
      "inputs": [
        {
          "name": "_owner",
          "type": "address"
        }
      ],
      "name": "balanceOf",
      "outputs": [
        {
          "name": "",
          "type": "uint256"
        }
      ],
      "payable": false,
      "stateMutability": "view",
      "type": "function"
    },
    {
      "constant": false,
      "inputs": [],
      "name": "renounceOwnership",
      "outputs": [],
      "payable": false,
      "stateMutability": "nonpayable",
      "type": "function"
    },
    {
      "constant": false,
      "inputs": [],
      "name": "pause",
      "outputs": [],
      "payable": false,
      "stateMutability": "nonpayable",
      "type": "function"
    },
    {
      "constant": true,
      "inputs": [],
      "name": "owner",
      "outputs": [
        {
          "name": "",
          "type": "address"
        }
      ],
      "payable": false,
      "stateMutability": "view",
      "type": "function"
    },
    {
      "constant": true,
      "inputs": [],
      "name": "symbol",
      "outputs": [
        {
          "name": "",
          "type": "string"
        }
      ],
      "payable": false,
      "stateMutability": "view",
      "type": "function"
    },
    {
      "constant": false,
      "inputs": [
        {
          "name": "_to",
          "type": "address"
        },
        {
          "name": "_approved",
          "type": "bool"
        }
      ],
      "name": "setApprovalForAll",
      "outputs": [],
      "payable": false,
      "stateMutability": "nonpayable",
      "type": "function"
    },
    {
      "constant": false,
      "inputs": [
        {
          "name": "_from",
          "type": "address"
        },
        {
          "name": "_to",
          "type": "address"
        },
        {
          "name": "_tokenId",
          "type": "uint256"
        },
        {
          "name": "_data",
          "type": "bytes"
        }
      ],
      "name": "safeTransferFrom",
      "outputs": [],
      "payable": false,
      "stateMutability": "nonpayable",
      "type": "function"
    },
    {
      "constant": true,
      "inputs": [],
      "name": "mintCost",
      "outputs": [
        {
          "name": "",
          "type": "uint256"
        }
      ],
      "payable": false,
      "stateMutability": "view",
      "type": "function"
    },
    {
      "constant": true,
      "inputs": [
        {
          "name": "_tokenId",
          "type": "uint256"
        }
      ],
      "name": "tokenURI",
      "outputs": [
        {
          "name": "",
          "type": "string"
        }
      ],
      "payable": false,
      "stateMutability": "view",
      "type": "function"
    },
    {
      "constant": true,
      "inputs": [
        {
          "name": "_dest",
          "type": "address"
        }
      ],
      "name": "payments",
      "outputs": [
        {
          "name": "",
          "type": "uint256"
        }
      ],
      "payable": false,
      "stateMutability": "view",
      "type": "function"
    },
    {
      "constant": true,
      "inputs": [
        {
          "name": "_owner",
          "type": "address"
        },
        {
          "name": "_operator",
          "type": "address"
        }
      ],
      "name": "isApprovedForAll",
      "outputs": [
        {
          "name": "",
          "type": "bool"
        }
      ],
      "payable": false,
      "stateMutability": "view",
      "type": "function"
    },
    {
      "constant": false,
      "inputs": [
        {
          "name": "_newOwner",
          "type": "address"
        }
      ],
      "name": "transferOwnership",
      "outputs": [],
      "payable": false,
      "stateMutability": "nonpayable",
      "type": "function"
    },
    {
      "inputs": [],
      "payable": false,
      "stateMutability": "nonpayable",
      "type": "constructor"
    },
    {
      "anonymous": false,
      "inputs": [
        {
          "indexed": false,
          "name": "_name",
          "type": "string"
        },
        {
          "indexed": false,
          "name": "_price",
          "type": "uint256"
        },
        {
          "indexed": false,
          "name": "_forSale",
          "type": "bool"
        },
        {
          "indexed": false,
          "name": "_imageHash",
          "type": "string"
        }
      ],
      "name": "Minted",
      "type": "event"
    },
    {
      "anonymous": false,
      "inputs": [
        {
          "indexed": false,
          "name": "_mintCost",
          "type": "uint256"
        }
      ],
      "name": "MintCostSet",
      "type": "event"
    },
    {
      "anonymous": false,
      "inputs": [
        {
          "indexed": false,
          "name": "_tokenID",
          "type": "uint256"
        },
        {
          "indexed": false,
          "name": "_name",
          "type": "string"
        },
        {
          "indexed": false,
          "name": "_price",
          "type": "uint256"
        },
        {
          "indexed": false,
          "name": "_forSale",
          "type": "bool"
        },
        {
          "indexed": false,
          "name": "_metaDataHash",
          "type": "string"
        }
      ],
      "name": "TokenEdited",
      "type": "event"
    },
    {
      "anonymous": false,
      "inputs": [
        {
          "indexed": false,
          "name": "_tokenID",
          "type": "uint256"
        }
      ],
      "name": "Requested",
      "type": "event"
    },
    {
      "anonymous": false,
      "inputs": [
        {
          "indexed": false,
          "name": "_tokenID",
          "type": "uint256"
        }
      ],
      "name": "Canceled",
      "type": "event"
    },
    {
      "anonymous": false,
      "inputs": [
        {
          "indexed": false,
          "name": "_tokenID",
          "type": "uint256"
        }
      ],
      "name": "Denied",
      "type": "event"
    },
    {
      "anonymous": false,
      "inputs": [
        {
          "indexed": false,
          "name": "_tokenID",
          "type": "uint256"
        }
      ],
      "name": "Purchased",
      "type": "event"
    },
    {
      "anonymous": false,
      "inputs": [],
      "name": "PaymentsWithdrawed",
      "type": "event"
    },
    {
      "anonymous": false,
      "inputs": [],
      "name": "Pause",
      "type": "event"
    },
    {
      "anonymous": false,
      "inputs": [],
      "name": "Unpause",
      "type": "event"
    },
    {
      "anonymous": false,
      "inputs": [
        {
          "indexed": true,
          "name": "previousOwner",
          "type": "address"
        }
      ],
      "name": "OwnershipRenounced",
      "type": "event"
    },
    {
      "anonymous": false,
      "inputs": [
        {
          "indexed": true,
          "name": "previousOwner",
          "type": "address"
        },
        {
          "indexed": true,
          "name": "newOwner",
          "type": "address"
        }
      ],
      "name": "OwnershipTransferred",
      "type": "event"
    },
    {
      "anonymous": false,
      "inputs": [
        {
          "indexed": true,
          "name": "_from",
          "type": "address"
        },
        {
          "indexed": true,
          "name": "_to",
          "type": "address"
        },
        {
          "indexed": true,
          "name": "_tokenId",
          "type": "uint256"
        }
      ],
      "name": "Transfer",
      "type": "event"
    },
    {
      "anonymous": false,
      "inputs": [
        {
          "indexed": true,
          "name": "_owner",
          "type": "address"
        },
        {
          "indexed": true,
          "name": "_approved",
          "type": "address"
        },
        {
          "indexed": true,
          "name": "_tokenId",
          "type": "uint256"
        }
      ],
      "name": "Approval",
      "type": "event"
    },
    {
      "anonymous": false,
      "inputs": [
        {
          "indexed": true,
          "name": "_owner",
          "type": "address"
        },
        {
          "indexed": true,
          "name": "_operator",
          "type": "address"
        },
        {
          "indexed": false,
          "name": "_approved",
          "type": "bool"
        }
      ],
      "name": "ApprovalForAll",
      "type": "event"
    },
    {
      "constant": false,
      "inputs": [
        {
          "name": "_name",
          "type": "string"
        },
        {
          "name": "_price",
          "type": "uint256"
        },
        {
          "name": "_forSale",
          "type": "bool"
        },
        {
          "name": "_imageHash",
          "type": "string"
        }
      ],
      "name": "mint",
      "outputs": [],
      "payable": true,
      "stateMutability": "payable",
      "type": "function"
    },
    {
      "constant": false,
      "inputs": [
        {
          "name": "_mintCost",
          "type": "uint256"
        }
      ],
      "name": "setMintCost",
      "outputs": [],
      "payable": false,
      "stateMutability": "nonpayable",
      "type": "function"
    },
    {
      "constant": true,
      "inputs": [
        {
          "name": "_address",
          "type": "address"
        }
      ],
      "name": "scoopsOf",
      "outputs": [
        {
          "name": "",
          "type": "uint256[]"
        }
      ],
      "payable": false,
      "stateMutability": "view",
      "type": "function"
    },
    {
      "constant": true,
      "inputs": [],
      "name": "scoopsForSale",
      "outputs": [
        {
          "name": "",
          "type": "bool[]"
        }
      ],
      "payable": false,
      "stateMutability": "view",
      "type": "function"
    },
    {
      "constant": false,
      "inputs": [
        {
          "name": "_tokenID",
          "type": "uint256"
        },
        {
          "name": "_name",
          "type": "string"
        },
        {
          "name": "_price",
          "type": "uint256"
        },
        {
          "name": "_forSale",
          "type": "bool"
        },
        {
          "name": "_metaDataHash",
          "type": "string"
        }
      ],
      "name": "editToken",
      "outputs": [],
      "payable": false,
      "stateMutability": "nonpayable",
      "type": "function"
    },
    {
      "constant": true,
      "inputs": [
        {
          "name": "_tokenID",
          "type": "uint256"
        }
      ],
      "name": "scoop",
      "outputs": [
        {
          "name": "",
          "type": "uint256"
        },
        {
          "name": "",
          "type": "string"
        },
        {
          "name": "",
          "type": "uint256"
        },
        {
          "name": "",
          "type": "string"
        },
        {
          "name": "",
          "type": "uint256"
        },
        {
          "name": "",
          "type": "bool"
        },
        {
          "name": "",
          "type": "string"
        },
        {
          "name": "",
          "type": "address"
        },
        {
          "name": "",
          "type": "address"
        },
        {
          "name": "",
          "type": "address"
        }
      ],
      "payable": false,
      "stateMutability": "view",
      "type": "function"
    },
    {
      "constant": false,
      "inputs": [
        {
          "name": "_tokenID",
          "type": "uint256"
        }
      ],
      "name": "request",
      "outputs": [],
      "payable": true,
      "stateMutability": "payable",
      "type": "function"
    },
    {
      "constant": false,
      "inputs": [
        {
          "name": "_tokenID",
          "type": "uint256"
        }
      ],
      "name": "cancel",
      "outputs": [],
      "payable": true,
      "stateMutability": "payable",
      "type": "function"
    },
    {
      "constant": false,
      "inputs": [
        {
          "name": "_to",
          "type": "address"
        },
        {
          "name": "_tokenID",
          "type": "uint256"
        }
      ],
      "name": "approve",
      "outputs": [],
      "payable": false,
      "stateMutability": "nonpayable",
      "type": "function"
    },
    {
      "constant": false,
      "inputs": [
        {
          "name": "_tokenID",
          "type": "uint256"
        }
      ],
      "name": "deny",
      "outputs": [],
      "payable": true,
      "stateMutability": "payable",
      "type": "function"
    },
    {
      "constant": false,
      "inputs": [
        {
          "name": "_tokenID",
          "type": "uint256"
        }
      ],
      "name": "purchase",
      "outputs": [],
      "payable": true,
      "stateMutability": "payable",
      "type": "function"
    },
    {
      "constant": false,
      "inputs": [],
      "name": "withdrawPayments",
      "outputs": [],
      "payable": false,
      "stateMutability": "nonpayable",
      "type": "function"
    }
  ],
  "bytecode": "0x60806040526000600c60146101000a81548160ff0219169083151502179055503480156200002c57600080fd5b506040805190810160405280600581526020017f53636f6f700000000000000000000000000000000000000000000000000000008152506040805190810160405280600381526020017f5343500000000000000000000000000000000000000000000000000000000000815250620000d66301ffc9a77c010000000000000000000000000000000000000000000000000000000002620002ad640100000000026401000000009004565b620001136380ac58cd7c010000000000000000000000000000000000000000000000000000000002620002ad640100000000026401000000009004565b62000150634f558e797c010000000000000000000000000000000000000000000000000000000002620002ad640100000000026401000000009004565b8160059080519060200190620001689291906200036b565b508060069080519060200190620001819291906200036b565b50620001bf63780e9d637c010000000000000000000000000000000000000000000000000000000002620002ad640100000000026401000000009004565b620001fc635b5e139f7c010000000000000000000000000000000000000000000000000000000002620002ad640100000000026401000000009004565b505033600c60006101000a81548173ffffffffffffffffffffffffffffffffffffffff021916908373ffffffffffffffffffffffffffffffffffffffff16021790555062000249620003f2565b604051809103906000f08015801562000266573d6000803e3d6000fd5b50600d60006101000a81548173ffffffffffffffffffffffffffffffffffffffff021916908373ffffffffffffffffffffffffffffffffffffffff1602179055506200042b565b63ffffffff7c010000000000000000000000000000000000000000000000000000000002817bffffffffffffffffffffffffffffffffffffffffffffffffffffffff191614151515620002ff57600080fd5b6001600080837bffffffffffffffffffffffffffffffffffffffffffffffffffffffff19167bffffffffffffffffffffffffffffffffffffffffffffffffffffffff1916815260200190815260200160002060006101000a81548160ff02191690831515021790555050565b828054600181600116156101000203166002900490600052602060002090601f016020900481019282601f10620003ae57805160ff1916838001178555620003df565b82800160010185558215620003df579182015b82811115620003de578251825591602001919060010190620003c1565b5b509050620003ee919062000403565b5090565b6040516108518062004eb983390190565b6200042891905b80821115620004245760008160009055506001016200040a565b5090565b90565b614a7e806200043b6000396000f3006080604052600436106101d8576000357c0100000000000000000000000000000000000000000000000000000000900463ffffffff16806301ffc9a7146101dd57806306fdde0314610241578063081812fc146102d1578063095ea7b31461033e57806318160ddd1461038b57806319fa8f50146103b657806323b872dd1461041f5780632bbab2651461048c5780632d1836f8146105245780632f745c59146105975780633f4ba83a146105f857806340e58ee51461060f57806342842e0e1461062f5780634f558e791461069c5780634f6ccce7146106e157806356f66282146107225780635c975abb146107425780636103d70b146107715780636352211e146107885780636cb746cd146107f55780636cee400c146109f257806370a0823114610a4e578063715018a614610aa55780637ae7fd9114610abc5780638456cb5914610b285780638545f4ea14610b3f5780638da5cb5b14610b6c57806395d89b4114610bc3578063a22cb46514610c53578063b88d4fde14610ca2578063bdb4b84814610d55578063c87b56dd14610d80578063d845a4b314610e26578063e2982c2114610e46578063e7fa4e2014610e9d578063e985e9c5146110d4578063efef39a11461114f578063f2fde38b1461116f575b600080fd5b3480156101e957600080fd5b5061022760048036038101908080357bffffffffffffffffffffffffffffffffffffffffffffffffffffffff191690602001909291905050506111b2565b604051808215151515815260200191505060405180910390f35b34801561024d57600080fd5b50610256611219565b6040518080602001828103825283818151815260200191508051906020019080838360005b8381101561029657808201518184015260208101905061027b565b50505050905090810190601f1680156102c35780820380516001836020036101000a031916815260200191505b509250505060405180910390f35b3480156102dd57600080fd5b506102fc600480360381019080803590602001909291905050506112bb565b604051808273ffffffffffffffffffffffffffffffffffffffff1673ffffffffffffffffffffffffffffffffffffffff16815260200191505060405180910390f35b34801561034a57600080fd5b50610389600480360381019080803573ffffffffffffffffffffffffffffffffffffffff169060200190929190803590602001909291905050506112f8565b005b34801561039757600080fd5b506103a061156c565b6040518082815260200191505060405180910390f35b3480156103c257600080fd5b506103cb611579565b60405180827bffffffffffffffffffffffffffffffffffffffffffffffffffffffff19167bffffffffffffffffffffffffffffffffffffffffffffffffffffffff1916815260200191505060405180910390f35b34801561042b57600080fd5b5061048a600480360381019080803573ffffffffffffffffffffffffffffffffffffffff169060200190929190803573ffffffffffffffffffffffffffffffffffffffff169060200190929190803590602001909291905050506115a0565b005b34801561049857600080fd5b506104cd600480360381019080803573ffffffffffffffffffffffffffffffffffffffff1690602001909291905050506116ad565b6040518080602001828103825283818151815260200191508051906020019060200280838360005b838110156105105780820151818401526020810190506104f5565b505050509050019250505060405180910390f35b34801561053057600080fd5b506105956004803603810190808035906020019092919080359060200190820180359060200191909192939192939080359060200190929190803515159060200190929190803590602001908201803590602001919091929391929390505050611744565b005b3480156105a357600080fd5b506105e2600480360381019080803573ffffffffffffffffffffffffffffffffffffffff16906020019092919080359060200190929190505050611a84565b6040518082815260200191505060405180910390f35b34801561060457600080fd5b5061060d611afb565b005b61062d60048036038101908080359060200190929190505050611bbb565b005b34801561063b57600080fd5b5061069a600480360381019080803573ffffffffffffffffffffffffffffffffffffffff169060200190929190803573ffffffffffffffffffffffffffffffffffffffff16906020019092919080359060200190929190505050611d33565b005b3480156106a857600080fd5b506106c760048036038101908080359060200190929190505050611d6b565b604051808215151515815260200191505060405180910390f35b3480156106ed57600080fd5b5061070c60048036038101908080359060200190929190505050611ddd565b6040518082815260200191505060405180910390f35b61074060048036038101908080359060200190929190505050611e15565b005b34801561074e57600080fd5b50610757611f94565b604051808215151515815260200191505060405180910390f35b34801561077d57600080fd5b50610786611fa7565b005b34801561079457600080fd5b506107b360048036038101908080359060200190929190505050611ff9565b604051808273ffffffffffffffffffffffffffffffffffffffff1673ffffffffffffffffffffffffffffffffffffffff16815260200191505060405180910390f35b34801561080157600080fd5b5061082060048036038101908080359060200190929190505050612077565b6040518080602001898152602001806020018873ffffffffffffffffffffffffffffffffffffffff1673ffffffffffffffffffffffffffffffffffffffff16815260200187815260200186151515158152602001806020018573ffffffffffffffffffffffffffffffffffffffff1673ffffffffffffffffffffffffffffffffffffffff16815260200184810384528c818151815260200191508051906020019080838360005b838110156108e25780820151818401526020810190506108c7565b50505050905090810190601f16801561090f5780820380516001836020036101000a031916815260200191505b5084810383528a818151815260200191508051906020019080838360005b8381101561094857808201518184015260208101905061092d565b50505050905090810190601f1680156109755780820380516001836020036101000a031916815260200191505b50848103825286818151815260200191508051906020019080838360005b838110156109ae578082015181840152602081019050610993565b50505050905090810190601f1680156109db5780820380516001836020036101000a031916815260200191505b509b50505050505050505050505060405180910390f35b610a4c600480360381019080803590602001908201803590602001919091929391929390803590602001909291908035151590602001909291908035906020019082018035906020019190919293919293905050506122e3565b005b348015610a5a57600080fd5b50610a8f600480360381019080803573ffffffffffffffffffffffffffffffffffffffff1690602001909291905050506127bb565b6040518082815260200191505060405180910390f35b348015610ab157600080fd5b50610aba61283f565b005b348015610ac857600080fd5b50610ad1612944565b6040518080602001828103825283818151815260200191508051906020019060200280838360005b83811015610b14578082015181840152602081019050610af9565b505050509050019250505060405180910390f35b348015610b3457600080fd5b50610b3d6129f7565b005b348015610b4b57600080fd5b50610b6a60048036038101908080359060200190929190505050612ab8565b005b348015610b7857600080fd5b50610b81612b55565b604051808273ffffffffffffffffffffffffffffffffffffffff1673ffffffffffffffffffffffffffffffffffffffff16815260200191505060405180910390f35b348015610bcf57600080fd5b50610bd8612b7b565b6040518080602001828103825283818151815260200191508051906020019080838360005b83811015610c18578082015181840152602081019050610bfd565b50505050905090810190601f168015610c455780820380516001836020036101000a031916815260200191505b509250505060405180910390f35b348015610c5f57600080fd5b50610ca0600480360381019080803573ffffffffffffffffffffffffffffffffffffffff169060200190929190803515159060200190929190505050612c1d565b005b348015610cae57600080fd5b50610d53600480360381019080803573ffffffffffffffffffffffffffffffffffffffff169060200190929190803573ffffffffffffffffffffffffffffffffffffffff16906020019092919080359060200190929190803590602001908201803590602001908080601f0160208091040260200160405190810160405280939291908181526020018383808284378201915050505050509192919290505050612d59565b005b348015610d6157600080fd5b50610d6a612d98565b6040518082815260200191505060405180910390f35b348015610d8c57600080fd5b50610dab60048036038101908080359060200190929190505050612d9e565b6040518080602001828103825283818151815260200191508051906020019080838360005b83811015610deb578082015181840152602081019050610dd0565b50505050905090810190601f168015610e185780820380516001836020036101000a031916815260200191505b509250505060405180910390f35b610e4460048036038101908080359060200190929190505050612e67565b005b348015610e5257600080fd5b50610e87600480360381019080803573ffffffffffffffffffffffffffffffffffffffff169060200190929190505050613045565b6040518082815260200191505060405180910390f35b348015610ea957600080fd5b50610ec860048036038101908080359060200190929190505050613146565b604051808b8152602001806020018a81526020018060200189815260200188151515158152602001806020018773ffffffffffffffffffffffffffffffffffffffff1673ffffffffffffffffffffffffffffffffffffffff1681526020018673ffffffffffffffffffffffffffffffffffffffff1673ffffffffffffffffffffffffffffffffffffffff1681526020018573ffffffffffffffffffffffffffffffffffffffff1673ffffffffffffffffffffffffffffffffffffffff16815260200184810384528d818151815260200191508051906020019080838360005b83811015610fc2578082015181840152602081019050610fa7565b50505050905090810190601f168015610fef5780820380516001836020036101000a031916815260200191505b5084810383528b818151815260200191508051906020019080838360005b8381101561102857808201518184015260208101905061100d565b50505050905090810190601f1680156110555780820380516001836020036101000a031916815260200191505b50848103825288818151815260200191508051906020019080838360005b8381101561108e578082015181840152602081019050611073565b50505050905090810190601f1680156110bb5780820380516001836020036101000a031916815260200191505b509d505050505050505050505050505060405180910390f35b3480156110e057600080fd5b50611135600480360381019080803573ffffffffffffffffffffffffffffffffffffffff169060200190929190803573ffffffffffffffffffffffffffffffffffffffff1690602001909291905050506134db565b604051808215151515815260200191505060405180910390f35b61116d6004803603810190808035906020019092919050505061356f565b005b34801561117b57600080fd5b506111b0600480360381019080803573ffffffffffffffffffffffffffffffffffffffff1690602001909291905050506139b6565b005b6000806000837bffffffffffffffffffffffffffffffffffffffffffffffffffffffff19167bffffffffffffffffffffffffffffffffffffffffffffffffffffffff1916815260200190815260200160002060009054906101000a900460ff169050919050565b606060058054600181600116156101000203166002900480601f0160208091040260200160405190810160405280929190818152602001828054600181600116156101000203166002900480156112b15780601f10611286576101008083540402835291602001916112b1565b820191906000526020600020905b81548152906001019060200180831161129457829003601f168201915b5050505050905090565b60006002600083815260200190815260200160002060009054906101000a900473ffffffffffffffffffffffffffffffffffffffff169050919050565b8061130281611d6b565b1515611376576040517f08c379a00000000000000000000000000000000000000000000000000000000081526004018080602001828103825260148152602001807f546f6b656e20646f65736e27742065786973742e00000000000000000000000081525060200191505060405180910390fd5b813373ffffffffffffffffffffffffffffffffffffffff1661139782611ff9565b73ffffffffffffffffffffffffffffffffffffffff161415156113b957600080fd5b82600e818154811015156113c957fe5b906000526020600020906008020160050160009054906101000a900460ff16151561145c576040517f08c379a00000000000000000000000000000000000000000000000000000000081526004018080602001828103825260148152602001807f4f6e6c7920666f722073616c6520746f6b656e2e00000000000000000000000081525060200191505060405180910390fd5b600c60149054906101000a900460ff1615151561147857600080fd5b600e8481548110151561148757fe5b906000526020600020906008020160070160009054906101000a900473ffffffffffffffffffffffffffffffffffffffff1673ffffffffffffffffffffffffffffffffffffffff168573ffffffffffffffffffffffffffffffffffffffff1614151561155b576040517f08c379a000000000000000000000000000000000000000000000000000000000815260040180806020018281038252601f8152602001807f547269656420746f20617070726f7665206e6f6e20726571756573746f722e0081525060200191505060405180910390fd5b6115658585613a1e565b5050505050565b6000600980549050905090565b6301ffc9a77c01000000000000000000000000000000000000000000000000000000000281565b806115ab3382613b63565b15156115b657600080fd5b600073ffffffffffffffffffffffffffffffffffffffff168473ffffffffffffffffffffffffffffffffffffffff16141515156115f257600080fd5b600073ffffffffffffffffffffffffffffffffffffffff168373ffffffffffffffffffffffffffffffffffffffff161415151561162e57600080fd5b6116388483613bf8565b6116428483613cfb565b61164c8383613f13565b818373ffffffffffffffffffffffffffffffffffffffff168573ffffffffffffffffffffffffffffffffffffffff167fddf252ad1be2c89b69c2b068fc378daa952ba7f163c4a11628f55a4df523b3ef60405160405180910390a450505050565b6060600760008373ffffffffffffffffffffffffffffffffffffffff1673ffffffffffffffffffffffffffffffffffffffff16815260200190815260200160002080548060200260200160405190810160405280929190818152602001828054801561173857602002820191906000526020600020905b815481526020019060010190808311611724575b50505050509050919050565b60008060008961175381611d6b565b15156117c7576040517f08c379a00000000000000000000000000000000000000000000000000000000081526004018080602001828103825260148152602001807f546f6b656e20646f65736e27742065786973742e00000000000000000000000081525060200191505060405180910390fd5b8a3373ffffffffffffffffffffffffffffffffffffffff166117e882611ff9565b73ffffffffffffffffffffffffffffffffffffffff1614151561180a57600080fd5b600c60149054906101000a900460ff1615151561182657600080fd5b8a8a9050945060008511801561183d575060328511155b15156118d7576040517f08c379a00000000000000000000000000000000000000000000000000000000081526004018080602001828103825260238152602001807f4e616d65206c656e677468206d757374206265206265747765656e203120746f81526020017f203530000000000000000000000000000000000000000000000000000000000081525060400191505060405180910390fd5b868690509350602e8414151561197b576040517f08c379a00000000000000000000000000000000000000000000000000000000081526004018080602001828103825260218152602001807f4d65746120646174612068617368206c656e677468206d75737420626520343681526020017f2e0000000000000000000000000000000000000000000000000000000000000081525060400191505060405180910390fd5b600e8c81548110151561198a57fe5b906000526020600020906008020192508a8a8460000191906119ad92919061488d565b50888360040181905550878360050160006101000a81548160ff02191690831515021790555086868460060191906119e692919061488d565b507f17a3a3ffd61ac8a05e3a9b04423f70ae6d07ddd7794864312116b949418cc39f8c8c8c8c8c8c8c604051808881526020018060200186815260200185151515158152602001806020018381038352898982818152602001925080828437820191505083810382528585828181526020019250808284378201915050995050505050505050505060405180910390a1505050505050505050505050565b6000611a8f836127bb565b82101515611a9c57600080fd5b600760008473ffffffffffffffffffffffffffffffffffffffff1673ffffffffffffffffffffffffffffffffffffffff16815260200190815260200160002082815481101515611ae857fe5b9060005260206000200154905092915050565b600c60009054906101000a900473ffffffffffffffffffffffffffffffffffffffff1673ffffffffffffffffffffffffffffffffffffffff163373ffffffffffffffffffffffffffffffffffffffff16141515611b5757600080fd5b600c60149054906101000a900460ff161515611b7257600080fd5b6000600c60146101000a81548160ff0219169083151502179055507f7805862f689e2f13df9f062ff482ad3ad112aca9e0847911ed832e158c525b3360405160405180910390a1565b600081611bc781611d6b565b1515611c3b576040517f08c379a00000000000000000000000000000000000000000000000000000000081526004018080602001828103825260148152602001807f546f6b656e20646f65736e27742065786973742e00000000000000000000000081525060200191505060405180910390fd5b600c60149054906101000a900460ff16151515611c5757600080fd5b600e83815481101515611c6657fe5b9060005260206000209060080201915060008260070160006101000a81548173ffffffffffffffffffffffffffffffffffffffff021916908373ffffffffffffffffffffffffffffffffffffffff160217905550611cf76001600085815260200190815260200160002060009054906101000a900473ffffffffffffffffffffffffffffffffffffffff1684613bf8565b7f829a8683c544ad289ce92d3ce06e9ebad69b18a6916e60ec766c2c217461d8e9836040518082815260200191505060405180910390a1505050565b80611d3e3382613b63565b1515611d4957600080fd5b611d658484846020604051908101604052806000815250612d59565b50505050565b6000806001600084815260200190815260200160002060009054906101000a900473ffffffffffffffffffffffffffffffffffffffff169050600073ffffffffffffffffffffffffffffffffffffffff168173ffffffffffffffffffffffffffffffffffffffff161415915050919050565b6000611de761156c565b82101515611df457600080fd5b600982815481101515611e0357fe5b90600052602060002001549050919050565b600081611e2181611d6b565b1515611e95576040517f08c379a00000000000000000000000000000000000000000000000000000000081526004018080602001828103825260148152602001807f546f6b656e20646f65736e27742065786973742e00000000000000000000000081525060200191505060405180910390fd5b823373ffffffffffffffffffffffffffffffffffffffff16611eb682611ff9565b73ffffffffffffffffffffffffffffffffffffffff16141515611ed857600080fd5b600c60149054906101000a900460ff16151515611ef457600080fd5b600e84815481101515611f0357fe5b9060005260206000209060080201925060008360070160006101000a81548173ffffffffffffffffffffffffffffffffffffffff021916908373ffffffffffffffffffffffffffffffffffffffff1602179055507f7e46dab6301cb35d8155d120339f166b39f0acf27f2a9a284977d4902c30aef5846040518082815260200191505060405180910390a150505050565b600c60149054906101000a900460ff1681565b600c60149054906101000a900460ff16151515611fc357600080fd5b611fcb613fea565b7fda0d9c5f59c5f16acb5956cdbade1e5aabf50f6ce9df39122415d802cf2d9d0d60405160405180910390a1565b6000806001600084815260200190815260200160002060009054906101000a900473ffffffffffffffffffffffffffffffffffffffff169050600073ffffffffffffffffffffffffffffffffffffffff168173ffffffffffffffffffffffffffffffffffffffff161415151561206e57600080fd5b80915050919050565b600e8181548110151561208657fe5b9060005260206000209060080201600091509050806000018054600181600116156101000203166002900480601f0160208091040260200160405190810160405280929190818152602001828054600181600116156101000203166002900480156121325780601f1061210757610100808354040283529160200191612132565b820191906000526020600020905b81548152906001019060200180831161211557829003601f168201915b505050505090806001015490806002018054600181600116156101000203166002900480601f0160208091040260200160405190810160405280929190818152602001828054600181600116156101000203166002900480156121d65780601f106121ab576101008083540402835291602001916121d6565b820191906000526020600020905b8154815290600101906020018083116121b957829003601f168201915b5050505050908060030160009054906101000a900473ffffffffffffffffffffffffffffffffffffffff16908060040154908060050160009054906101000a900460ff1690806006018054600181600116156101000203166002900480601f0160208091040260200160405190810160405280929190818152602001828054600181600116156101000203166002900480156122b35780601f10612288576101008083540402835291602001916122b3565b820191906000526020600020905b81548152906001019060200180831161229657829003601f168201915b5050505050908060070160009054906101000a900473ffffffffffffffffffffffffffffffffffffffff16905088565b6000806122ee61490d565b6000600c60149054906101000a900460ff1615151561230c57600080fd5b600f5434141515612385576040517f08c379a000000000000000000000000000000000000000000000000000000000815260040180806020018281038252601a8152602001807f4d696e7420636f737420697320696e73756666696369656e742e00000000000081525060200191505060405180910390fd5b89899050935060008411801561239c575060328411155b1515612436576040517f08c379a00000000000000000000000000000000000000000000000000000000081526004018080602001828103825260238152602001807f4e616d65206c656e677468206d757374206265206265747765656e203120746f81526020017f203530000000000000000000000000000000000000000000000000000000000081525060400191505060405180910390fd5b858590509250602e831415156124b4576040517f08c379a000000000000000000000000000000000000000000000000000000000815260040180806020018281038252601d8152602001807f496d6167652068617368206c656e677468206d7573742062652034362e00000081525060200191505060405180910390fd5b610100604051908101604052808b8b8080601f016020809104026020016040519081016040528093929190818152602001838380828437820191505050505050815260200142815260200187878080601f01602080910402602001604051908101604052809392919081815260200183838082843782019150505050505081526020013373ffffffffffffffffffffffffffffffffffffffff168152602001898152602001881515815260200160206040519081016040528060008152508152602001600073ffffffffffffffffffffffffffffffffffffffff1681525091506126f06001600e849080600181540180825580915050906001820390600052602060002090600802016000909192909190915060008201518160000190805190602001906125e3929190614981565b5060208201518160010155604082015181600201908051906020019061260a929190614981565b5060608201518160030160006101000a81548173ffffffffffffffffffffffffffffffffffffffff021916908373ffffffffffffffffffffffffffffffffffffffff1602179055506080820151816004015560a08201518160050160006101000a81548160ff02191690831515021790555060c0820151816006019080519060200190612698929190614981565b5060e08201518160070160006101000a81548173ffffffffffffffffffffffffffffffffffffffff021916908373ffffffffffffffffffffffffffffffffffffffff16021790555050506140c790919063ffffffff16565b90506126fc33826140e0565b612728600c60009054906101000a900473ffffffffffffffffffffffffffffffffffffffff1634614137565b7f04dca43c501e4765e99a56b450a5f4513f853490e73743ea26335e2164792d1f8a8a8a8a8a8a6040518080602001868152602001851515151581526020018060200183810383528989828181526020019250808284378201915050838103825285858281815260200192508082843782019150509850505050505050505060405180910390a150505050505050505050565b60008073ffffffffffffffffffffffffffffffffffffffff168273ffffffffffffffffffffffffffffffffffffffff16141515156127f857600080fd5b600360008373ffffffffffffffffffffffffffffffffffffffff1673ffffffffffffffffffffffffffffffffffffffff168152602001908152602001600020549050919050565b600c60009054906101000a900473ffffffffffffffffffffffffffffffffffffffff1673ffffffffffffffffffffffffffffffffffffffff163373ffffffffffffffffffffffffffffffffffffffff1614151561289b57600080fd5b600c60009054906101000a900473ffffffffffffffffffffffffffffffffffffffff1673ffffffffffffffffffffffffffffffffffffffff167ff8df31144d9c2f0f6b59d69b8b98abd5459d07f2742c4df920b25aae33c6482060405160405180910390a26000600c60006101000a81548173ffffffffffffffffffffffffffffffffffffffff021916908373ffffffffffffffffffffffffffffffffffffffff160217905550565b6060806000600e8054905060405190808252806020026020018201604052801561297d5781602001602082028038833980820191505090505b509150600090505b600e805490508110156129ef57600e818154811015156129a157fe5b906000526020600020906008020160050160009054906101000a900460ff1682828151811015156129ce57fe5b90602001906020020190151590811515815250508080600101915050612985565b819250505090565b600c60009054906101000a900473ffffffffffffffffffffffffffffffffffffffff1673ffffffffffffffffffffffffffffffffffffffff163373ffffffffffffffffffffffffffffffffffffffff16141515612a5357600080fd5b600c60149054906101000a900460ff16151515612a6f57600080fd5b6001600c60146101000a81548160ff0219169083151502179055507f6985a02210a168e66602d3235cb6db0e70f92b3ba4d376a33c0f3d9434bff62560405160405180910390a1565b600c60009054906101000a900473ffffffffffffffffffffffffffffffffffffffff1673ffffffffffffffffffffffffffffffffffffffff163373ffffffffffffffffffffffffffffffffffffffff16141515612b1457600080fd5b80600f819055507f653b8b44976b2e5c016e082d134653d04dea9dbef92055038cca38c930070355816040518082815260200191505060405180910390a150565b600c60009054906101000a900473ffffffffffffffffffffffffffffffffffffffff1681565b606060068054600181600116156101000203166002900480601f016020809104026020016040519081016040528092919081815260200182805460018160011615610100020316600290048015612c135780601f10612be857610100808354040283529160200191612c13565b820191906000526020600020905b815481529060010190602001808311612bf657829003601f168201915b5050505050905090565b3373ffffffffffffffffffffffffffffffffffffffff168273ffffffffffffffffffffffffffffffffffffffff1614151515612c5857600080fd5b80600460003373ffffffffffffffffffffffffffffffffffffffff1673ffffffffffffffffffffffffffffffffffffffff16815260200190815260200160002060008473ffffffffffffffffffffffffffffffffffffffff1673ffffffffffffffffffffffffffffffffffffffff16815260200190815260200160002060006101000a81548160ff0219169083151502179055508173ffffffffffffffffffffffffffffffffffffffff163373ffffffffffffffffffffffffffffffffffffffff167f17307eab39ab6107e8899845ad3d59bd9653f200f220920489ca2b5937696c3183604051808215151515815260200191505060405180910390a35050565b81612d643382613b63565b1515612d6f57600080fd5b612d7a8585856115a0565b612d8685858585614211565b1515612d9157600080fd5b5050505050565b600f5481565b6060612da982611d6b565b1515612db457600080fd5b600b60008381526020019081526020016000208054600181600116156101000203166002900480601f016020809104026020016040519081016040528092919081815260200182805460018160011615610100020316600290048015612e5b5780601f10612e3057610100808354040283529160200191612e5b565b820191906000526020600020905b815481529060010190602001808311612e3e57829003601f168201915b50505050509050919050565b600081600e81815481101515612e7957fe5b906000526020600020906008020160050160009054906101000a900460ff161515612f0c576040517f08c379a00000000000000000000000000000000000000000000000000000000081526004018080602001828103825260148152602001807f4f6e6c7920666f722073616c6520746f6b656e2e00000000000000000000000081525060200191505060405180910390fd5b82612f1681611d6b565b1515612f8a576040517f08c379a00000000000000000000000000000000000000000000000000000000081526004018080602001828103825260148152602001807f546f6b656e20646f65736e27742065786973742e00000000000000000000000081525060200191505060405180910390fd5b600c60149054906101000a900460ff16151515612fa657600080fd5b600e84815481101515612fb557fe5b90600052602060002090600802019250338360070160006101000a81548173ffffffffffffffffffffffffffffffffffffffff021916908373ffffffffffffffffffffffffffffffffffffffff1602179055507f54593fbf3d0e13af724316e44a7387ee756ab753993496c7009658e83217002c846040518082815260200191505060405180910390a150505050565b6000600d60009054906101000a900473ffffffffffffffffffffffffffffffffffffffff1673ffffffffffffffffffffffffffffffffffffffff1663e3a9db1a836040518263ffffffff167c0100000000000000000000000000000000000000000000000000000000028152600401808273ffffffffffffffffffffffffffffffffffffffff1673ffffffffffffffffffffffffffffffffffffffff168152602001915050602060405180830381600087803b15801561310457600080fd5b505af1158015613118573d6000803e3d6000fd5b505050506040513d602081101561312e57600080fd5b81019080805190602001909291905050509050919050565b60006060600060606000806060600080600061316061490d565b6000600e8d81548110151561317157fe5b90600052602060002090600802016101006040519081016040529081600082018054600181600116156101000203166002900480601f0160208091040260200160405190810160405280929190818152602001828054600181600116156101000203166002900480156132255780601f106131fa57610100808354040283529160200191613225565b820191906000526020600020905b81548152906001019060200180831161320857829003601f168201915b5050505050815260200160018201548152602001600282018054600181600116156101000203166002900480601f0160208091040260200160405190810160405280929190818152602001828054600181600116156101000203166002900480156132d15780601f106132a6576101008083540402835291602001916132d1565b820191906000526020600020905b8154815290600101906020018083116132b457829003601f168201915b505050505081526020016003820160009054906101000a900473ffffffffffffffffffffffffffffffffffffffff1673ffffffffffffffffffffffffffffffffffffffff1673ffffffffffffffffffffffffffffffffffffffff168152602001600482015481526020016005820160009054906101000a900460ff16151515158152602001600682018054600181600116156101000203166002900480601f0160208091040260200160405190810160405280929190818152602001828054600181600116156101000203166002900480156133ee5780601f106133c3576101008083540402835291602001916133ee565b820191906000526020600020905b8154815290600101906020018083116133d157829003601f168201915b505050505081526020016007820160009054906101000a900473ffffffffffffffffffffffffffffffffffffffff1673ffffffffffffffffffffffffffffffffffffffff1673ffffffffffffffffffffffffffffffffffffffff16815250509150600160008e815260200190815260200160002060009054906101000a900473ffffffffffffffffffffffffffffffffffffffff1690508c82600001518360200151846040015185608001518660a001518760c001518860600151888a60e001518898508696508393509b509b509b509b509b509b509b509b509b509b5050509193959799509193959799565b6000600460008473ffffffffffffffffffffffffffffffffffffffff1673ffffffffffffffffffffffffffffffffffffffff16815260200190815260200160002060008373ffffffffffffffffffffffffffffffffffffffff1673ffffffffffffffffffffffffffffffffffffffff16815260200190815260200160002060009054906101000a900460ff16905092915050565b60008060008361357e81611d6b565b15156135f2576040517f08c379a00000000000000000000000000000000000000000000000000000000081526004018080602001828103825260148152602001807f546f6b656e20646f65736e27742065786973742e00000000000000000000000081525060200191505060405180910390fd5b84600e8181548110151561360257fe5b906000526020600020906008020160050160009054906101000a900460ff161515613695576040517f08c379a00000000000000000000000000000000000000000000000000000000081526004018080602001828103825260148152602001807f4f6e6c7920666f722073616c6520746f6b656e2e00000000000000000000000081525060200191505060405180910390fd5b600c60149054906101000a900460ff161515156136b157600080fd5b6001600087815260200190815260200160002060009054906101000a900473ffffffffffffffffffffffffffffffffffffffff1694503393508373ffffffffffffffffffffffffffffffffffffffff168573ffffffffffffffffffffffffffffffffffffffff161415151561378e576040517f08c379a00000000000000000000000000000000000000000000000000000000081526004018080602001828103825260198152602001807f43616e2774207472616e7366657220746f206d7973656c662e0000000000000081525060200191505060405180910390fd5b8373ffffffffffffffffffffffffffffffffffffffff166137ae876112bb565b73ffffffffffffffffffffffffffffffffffffffff16141515613839576040517f08c379a00000000000000000000000000000000000000000000000000000000081526004018080602001828103825260178152602001807f73656e646572206973206e6f7420617070726f7665642e00000000000000000081525060200191505060405180910390fd5b34600e8781548110151561384957fe5b9060005260206000209060080201600401541415156138d0576040517f08c379a00000000000000000000000000000000000000000000000000000000081526004018080602001828103825260168152602001807f56616c756520697320696e73756666696369656e742e0000000000000000000081525060200191505060405180910390fd5b6138db858588611d33565b600e868154811015156138ea57fe5b9060005260206000209060080201925060008360050160006101000a81548160ff02191690831515021790555060008360070160006101000a81548173ffffffffffffffffffffffffffffffffffffffff021916908373ffffffffffffffffffffffffffffffffffffffff16021790555060008360040154111561397757613976858460040154614137565b5b7f653d56639fee6b566a5c804764e9689de38645f0b733df89a36a1b7b42173dd8866040518082815260200191505060405180910390a1505050505050565b600c60009054906101000a900473ffffffffffffffffffffffffffffffffffffffff1673ffffffffffffffffffffffffffffffffffffffff163373ffffffffffffffffffffffffffffffffffffffff16141515613a1257600080fd5b613a1b81614433565b50565b6000613a2982611ff9565b90508073ffffffffffffffffffffffffffffffffffffffff168373ffffffffffffffffffffffffffffffffffffffff1614151515613a6657600080fd5b8073ffffffffffffffffffffffffffffffffffffffff163373ffffffffffffffffffffffffffffffffffffffff161480613aa65750613aa581336134db565b5b1515613ab157600080fd5b826002600084815260200190815260200160002060006101000a81548173ffffffffffffffffffffffffffffffffffffffff021916908373ffffffffffffffffffffffffffffffffffffffff160217905550818373ffffffffffffffffffffffffffffffffffffffff168273ffffffffffffffffffffffffffffffffffffffff167f8c5be1e5ebec7d5bd14f71427d1e84f3dd0314c0f7b2291e5b200ac8c7c3b92560405160405180910390a4505050565b600080613b6f83611ff9565b90508073ffffffffffffffffffffffffffffffffffffffff168473ffffffffffffffffffffffffffffffffffffffff161480613bde57508373ffffffffffffffffffffffffffffffffffffffff16613bc6846112bb565b73ffffffffffffffffffffffffffffffffffffffff16145b80613bef5750613bee81856134db565b5b91505092915050565b8173ffffffffffffffffffffffffffffffffffffffff16613c1882611ff9565b73ffffffffffffffffffffffffffffffffffffffff16141515613c3a57600080fd5b600073ffffffffffffffffffffffffffffffffffffffff166002600083815260200190815260200160002060009054906101000a900473ffffffffffffffffffffffffffffffffffffffff1673ffffffffffffffffffffffffffffffffffffffff16141515613cf75760006002600083815260200190815260200160002060006101000a81548173ffffffffffffffffffffffffffffffffffffffff021916908373ffffffffffffffffffffffffffffffffffffffff1602179055505b5050565b6000806000613d0a858561452f565b60086000858152602001908152602001600020549250613d766001600760008873ffffffffffffffffffffffffffffffffffffffff1673ffffffffffffffffffffffffffffffffffffffff168152602001908152602001600020805490506140c790919063ffffffff16565b9150600760008673ffffffffffffffffffffffffffffffffffffffff1673ffffffffffffffffffffffffffffffffffffffff16815260200190815260200160002082815481101515613dc457fe5b9060005260206000200154905080600760008773ffffffffffffffffffffffffffffffffffffffff1673ffffffffffffffffffffffffffffffffffffffff16815260200190815260200160002084815481101515613e1e57fe5b90600052602060002001819055506000600760008773ffffffffffffffffffffffffffffffffffffffff1673ffffffffffffffffffffffffffffffffffffffff16815260200190815260200160002083815481101515613e7a57fe5b9060005260206000200181905550600760008673ffffffffffffffffffffffffffffffffffffffff1673ffffffffffffffffffffffffffffffffffffffff168152602001908152602001600020805480919060019003613eda9190614a01565b50600060086000868152602001908152602001600020819055508260086000838152602001908152602001600020819055505050505050565b6000613f1f838361465e565b600760008473ffffffffffffffffffffffffffffffffffffffff1673ffffffffffffffffffffffffffffffffffffffff168152602001908152602001600020805490509050600760008473ffffffffffffffffffffffffffffffffffffffff1673ffffffffffffffffffffffffffffffffffffffff168152602001908152602001600020829080600181540180825580915050906001820390600052602060002001600090919290919091505550806008600084815260200190815260200160002081905550505050565b6000339050600d60009054906101000a900473ffffffffffffffffffffffffffffffffffffffff1673ffffffffffffffffffffffffffffffffffffffff166351cff8d9826040518263ffffffff167c0100000000000000000000000000000000000000000000000000000000028152600401808273ffffffffffffffffffffffffffffffffffffffff1673ffffffffffffffffffffffffffffffffffffffff168152602001915050600060405180830381600087803b1580156140ac57600080fd5b505af11580156140c0573d6000803e3d6000fd5b5050505050565b60008282111515156140d557fe5b818303905092915050565b6140ea82826147b8565b600980549050600a60008381526020019081526020016000208190555060098190806001815401808255809150509060018203906000526020600020016000909192909190915055505050565b600d60009054906101000a900473ffffffffffffffffffffffffffffffffffffffff1673ffffffffffffffffffffffffffffffffffffffff1663f340fa0182846040518363ffffffff167c0100000000000000000000000000000000000000000000000000000000028152600401808273ffffffffffffffffffffffffffffffffffffffff1673ffffffffffffffffffffffffffffffffffffffff1681526020019150506000604051808303818588803b1580156141f457600080fd5b505af1158015614208573d6000803e3d6000fd5b50505050505050565b6000806142338573ffffffffffffffffffffffffffffffffffffffff1661485e565b1515614242576001915061442a565b8473ffffffffffffffffffffffffffffffffffffffff1663150b7a02338887876040518563ffffffff167c0100000000000000000000000000000000000000000000000000000000028152600401808573ffffffffffffffffffffffffffffffffffffffff1673ffffffffffffffffffffffffffffffffffffffff1681526020018473ffffffffffffffffffffffffffffffffffffffff1673ffffffffffffffffffffffffffffffffffffffff16815260200183815260200180602001828103825283818151815260200191508051906020019080838360005b8381101561433757808201518184015260208101905061431c565b50505050905090810190601f1680156143645780820380516001836020036101000a031916815260200191505b5095505050505050602060405180830381600087803b15801561438657600080fd5b505af115801561439a573d6000803e3d6000fd5b505050506040513d60208110156143b057600080fd5b8101908080519060200190929190505050905063150b7a027c0100000000000000000000000000000000000000000000000000000000027bffffffffffffffffffffffffffffffffffffffffffffffffffffffff1916817bffffffffffffffffffffffffffffffffffffffffffffffffffffffff19161491505b50949350505050565b600073ffffffffffffffffffffffffffffffffffffffff168173ffffffffffffffffffffffffffffffffffffffff161415151561446f57600080fd5b8073ffffffffffffffffffffffffffffffffffffffff16600c60009054906101000a900473ffffffffffffffffffffffffffffffffffffffff1673ffffffffffffffffffffffffffffffffffffffff167f8be0079c531659141344cd1fd0a4f28419497f9722a3daafe3b4186f6b6457e060405160405180910390a380600c60006101000a81548173ffffffffffffffffffffffffffffffffffffffff021916908373ffffffffffffffffffffffffffffffffffffffff16021790555050565b8173ffffffffffffffffffffffffffffffffffffffff1661454f82611ff9565b73ffffffffffffffffffffffffffffffffffffffff1614151561457157600080fd5b6145c46001600360008573ffffffffffffffffffffffffffffffffffffffff1673ffffffffffffffffffffffffffffffffffffffff168152602001908152602001600020546140c790919063ffffffff16565b600360008473ffffffffffffffffffffffffffffffffffffffff1673ffffffffffffffffffffffffffffffffffffffff1681526020019081526020016000208190555060006001600083815260200190815260200160002060006101000a81548173ffffffffffffffffffffffffffffffffffffffff021916908373ffffffffffffffffffffffffffffffffffffffff1602179055505050565b600073ffffffffffffffffffffffffffffffffffffffff166001600083815260200190815260200160002060009054906101000a900473ffffffffffffffffffffffffffffffffffffffff1673ffffffffffffffffffffffffffffffffffffffff161415156146cc57600080fd5b816001600083815260200190815260200160002060006101000a81548173ffffffffffffffffffffffffffffffffffffffff021916908373ffffffffffffffffffffffffffffffffffffffff1602179055506147716001600360008573ffffffffffffffffffffffffffffffffffffffff1673ffffffffffffffffffffffffffffffffffffffff1681526020019081526020016000205461487190919063ffffffff16565b600360008473ffffffffffffffffffffffffffffffffffffffff1673ffffffffffffffffffffffffffffffffffffffff168152602001908152602001600020819055505050565b600073ffffffffffffffffffffffffffffffffffffffff168273ffffffffffffffffffffffffffffffffffffffff16141515156147f457600080fd5b6147fe8282613f13565b808273ffffffffffffffffffffffffffffffffffffffff16600073ffffffffffffffffffffffffffffffffffffffff167fddf252ad1be2c89b69c2b068fc378daa952ba7f163c4a11628f55a4df523b3ef60405160405180910390a45050565b600080823b905060008111915050919050565b6000818301905082811015151561488457fe5b80905092915050565b828054600181600116156101000203166002900490600052602060002090601f016020900481019282601f106148ce57803560ff19168380011785556148fc565b828001600101855582156148fc579182015b828111156148fb5782358255916020019190600101906148e0565b5b5090506149099190614a2d565b5090565b61010060405190810160405280606081526020016000815260200160608152602001600073ffffffffffffffffffffffffffffffffffffffff1681526020016000815260200160001515815260200160608152602001600073ffffffffffffffffffffffffffffffffffffffff1681525090565b828054600181600116156101000203166002900490600052602060002090601f016020900481019282601f106149c257805160ff19168380011785556149f0565b828001600101855582156149f0579182015b828111156149ef5782518255916020019190600101906149d4565b5b5090506149fd9190614a2d565b5090565b815481835581811115614a2857818360005260206000209182019101614a279190614a2d565b5b505050565b614a4f91905b80821115614a4b576000816000905550600101614a33565b5090565b905600a165627a7a723058209d43065a018592fe222bdadd9010d2395cfc24e320b5f09c7fbfa76ca76a4b1800296080604052336000806101000a81548173ffffffffffffffffffffffffffffffffffffffff021916908373ffffffffffffffffffffffffffffffffffffffff1602179055506107fe806100536000396000f300608060405260043610610078576000357c0100000000000000000000000000000000000000000000000000000000900463ffffffff16806351cff8d91461007d578063715018a6146100c05780638da5cb5b146100d7578063e3a9db1a1461012e578063f2fde38b14610185578063f340fa01146101c8575b600080fd5b34801561008957600080fd5b506100be600480360381019080803573ffffffffffffffffffffffffffffffffffffffff1690602001909291905050506101fe565b005b3480156100cc57600080fd5b506100d561039e565b005b3480156100e357600080fd5b506100ec6104a0565b604051808273ffffffffffffffffffffffffffffffffffffffff1673ffffffffffffffffffffffffffffffffffffffff16815260200191505060405180910390f35b34801561013a57600080fd5b5061016f600480360381019080803573ffffffffffffffffffffffffffffffffffffffff1690602001909291905050506104c5565b6040518082815260200191505060405180910390f35b34801561019157600080fd5b506101c6600480360381019080803573ffffffffffffffffffffffffffffffffffffffff16906020019092919050505061050e565b005b6101fc600480360381019080803573ffffffffffffffffffffffffffffffffffffffff169060200190929190505050610575565b005b60008060009054906101000a900473ffffffffffffffffffffffffffffffffffffffff1673ffffffffffffffffffffffffffffffffffffffff163373ffffffffffffffffffffffffffffffffffffffff1614151561025b57600080fd5b600160008373ffffffffffffffffffffffffffffffffffffffff1673ffffffffffffffffffffffffffffffffffffffff168152602001908152602001600020549050803073ffffffffffffffffffffffffffffffffffffffff1631101515156102c057fe5b6000600160008473ffffffffffffffffffffffffffffffffffffffff1673ffffffffffffffffffffffffffffffffffffffff168152602001908152602001600020819055508173ffffffffffffffffffffffffffffffffffffffff166108fc829081150290604051600060405180830381858888f1935050505015801561034b573d6000803e3d6000fd5b508173ffffffffffffffffffffffffffffffffffffffff167f7084f5476618d8e60b11ef0d7d3f06914655adb8793e28ff7f018d4c76d505d5826040518082815260200191505060405180910390a25050565b6000809054906101000a900473ffffffffffffffffffffffffffffffffffffffff1673ffffffffffffffffffffffffffffffffffffffff163373ffffffffffffffffffffffffffffffffffffffff161415156103f957600080fd5b6000809054906101000a900473ffffffffffffffffffffffffffffffffffffffff1673ffffffffffffffffffffffffffffffffffffffff167ff8df31144d9c2f0f6b59d69b8b98abd5459d07f2742c4df920b25aae33c6482060405160405180910390a260008060006101000a81548173ffffffffffffffffffffffffffffffffffffffff021916908373ffffffffffffffffffffffffffffffffffffffff160217905550565b6000809054906101000a900473ffffffffffffffffffffffffffffffffffffffff1681565b6000600160008373ffffffffffffffffffffffffffffffffffffffff1673ffffffffffffffffffffffffffffffffffffffff168152602001908152602001600020549050919050565b6000809054906101000a900473ffffffffffffffffffffffffffffffffffffffff1673ffffffffffffffffffffffffffffffffffffffff163373ffffffffffffffffffffffffffffffffffffffff1614151561056957600080fd5b610572816106bc565b50565b60008060009054906101000a900473ffffffffffffffffffffffffffffffffffffffff1673ffffffffffffffffffffffffffffffffffffffff163373ffffffffffffffffffffffffffffffffffffffff161415156105d257600080fd5b34905061062781600160008573ffffffffffffffffffffffffffffffffffffffff1673ffffffffffffffffffffffffffffffffffffffff168152602001908152602001600020546107b690919063ffffffff16565b600160008473ffffffffffffffffffffffffffffffffffffffff1673ffffffffffffffffffffffffffffffffffffffff168152602001908152602001600020819055508173ffffffffffffffffffffffffffffffffffffffff167f2da466a7b24304f47e87fa2e1e5a81b9831ce54fec19055ce277ca2f39ba42c4826040518082815260200191505060405180910390a25050565b600073ffffffffffffffffffffffffffffffffffffffff168173ffffffffffffffffffffffffffffffffffffffff16141515156106f857600080fd5b8073ffffffffffffffffffffffffffffffffffffffff166000809054906101000a900473ffffffffffffffffffffffffffffffffffffffff1673ffffffffffffffffffffffffffffffffffffffff167f8be0079c531659141344cd1fd0a4f28419497f9722a3daafe3b4186f6b6457e060405160405180910390a3806000806101000a81548173ffffffffffffffffffffffffffffffffffffffff021916908373ffffffffffffffffffffffffffffffffffffffff16021790555050565b600081830190508281101515156107c957fe5b809050929150505600a165627a7a723058208a99ed6403a6f0d3d3c993e80e3902332535cfdbef58d01a85e177fa308464750029",
  "source": "pragma solidity ^0.4.23;\n\nimport \"openzeppelin-solidity/contracts/token/ERC721/ERC721Token.sol\";\nimport \"openzeppelin-solidity/contracts/math/SafeMath.sol\";\nimport \"openzeppelin-solidity/contracts/lifecycle/Pausable.sol\";\nimport \"openzeppelin-solidity/contracts/payment/PullPayment.sol\";\n\n/** \n * @title Scoop Market\n * @author Kazuki Tsutusmi\n * @notice A contract to publish and trade \"Scoop\".\n * @dev This is a ERC-721 token implementation.\n */\ncontract ScoopMarket is ERC721Token, Pausable, PullPayment {\n  // Libraries =============================================================================\n  // @dev This library is not from EthPM but usage is similer to EthPM.\n  using SafeMath for uint;\n\n  // Events ================================================================================\n  // @dev Approval event is defined in ERC721Basic.\n  event Minted(string _name, uint _price, bool _forSale, string _imageHash);\n  event MintCostSet(uint _mintCost);\n  event TokenEdited(uint _tokenID, string _name, uint _price, bool _forSale, string _metaDataHash);\n  event Requested(uint _tokenID);\n  event Canceled(uint _tokenID);\n  event Denied(uint _tokenID);\n  event Purchased(uint _tokenID);\n  event PaymentsWithdrawed();\n\n  // Structs ===============================================================================\n  struct Scoop {\n    string  name;         // Token name.\n    uint    timestamp;    // When it was minted.\n    string  imageHash;    // IPFS hash of the scoop image.\n    address author;       // Address who minted this token.\n    uint    price;        // The price of the token in wei.\n    bool    forSale;      // True if this scoop is for sale.\n    string  metaDataHash; // IPFS hash of the scoop meta data.\n    address requestor;    // Address who is requesting to purchase this token.\n  }\n\n  // Variables =============================================================================\n  Scoop[] public scoops;\n  uint public mintCost;\n\n  // Modifiers =============================================================================\n  /**\n   * @param _tokenID ID of target token.\n   * @dev require target token is for sale.\n   */\n  modifier onlyForSaleToken(uint _tokenID) {\n    require(scoops[_tokenID].forSale, \"Only for sale token.\");\n    _;\n  }\n\n /**\n   * @param _tokenID ID of target token.\n   * @dev require target token exists.\n   */\n  modifier tokenExists(uint _tokenID) {\n    require(exists(_tokenID), \"Token doesn't exist.\");\n    _;\n  }\n\n  // Functions ============================================================================  \n  constructor() public ERC721Token(\"Scoop\", \"SCP\") {}\n\n  /**\n   * @notice It costs mintCost value.\n   * @param _name The name of scoop. Its length must between 1 to 50.\n   * @param _price The price of the token in wei.\n   * @param _forSale True if this scoop is for sale.\n   * @param _imageHash IPFS hash of the scoop image. Its length must be 46.\n   */\n  function mint(string _name, uint _price, bool _forSale, string _imageHash) external payable whenNotPaused {\n    // Check value.\n    require(msg.value == mintCost, \"Mint cost is insufficient.\");\n\n    // Check input parameters.\n    uint _nameLength = bytes(_name).length;\n    require(_nameLength > 0 && _nameLength <= 50, \"Name length must be between 1 to 50\");\n    uint _imageHashLength = bytes(_imageHash).length;\n    require(_imageHashLength == 46, \"Image hash length must be 46.\");\n\n    // metaDataHash and requestor set to empty.\n    Scoop memory _scoop = Scoop(_name, block.timestamp, _imageHash, msg.sender, _price, _forSale, \"\", address(0));\n    uint _tokenID = scoops.push(_scoop).sub(1);\n    super._mint(msg.sender, _tokenID);\n\n    // Send value to seller by PullPayments contract.\n    asyncTransfer(owner, msg.value);\n    emit Minted(_name, _price, _forSale, _imageHash);\n  }\n\n  /**\n   * @param _mintCost cost to mint.\n   */\n  function setMintCost(uint _mintCost) external onlyOwner {\n    mintCost = _mintCost;\n    emit MintCostSet(_mintCost);\n  }\n  \n  /**\n   * @param _address User address.\n   * @return tokenIDs: IDs of the tokens owned by _address.\n   */\n  function scoopsOf(address _address) external view returns (uint[]) {\n    return ownedTokens[_address];\n  }\n\n  /**\n   * @return forSales: The forsale array of tokens. Its indexes are the token ids. \n   */  \n  function scoopsForSale() external view returns (bool[]) {\n    bool[] memory _result = new bool[](scoops.length);\n    for (uint i = 0; i < scoops.length; i ++) {\n      _result[i] = scoops[i].forSale;\n    }\n    return _result;\n  }\n\n  /**\n   * @param _tokenID ID of target token.\n   * @param _name The name of scoop. Its length must between 1 to 50.\n   * @param _price The price of the token in wei.\n   * @param _forSale True if this scoop is for sale.\n   * @param _metaDataHash IPFS hash of the scoop meta data. Its length must be 46.\n   */  \n  function editToken(uint _tokenID, string _name, uint _price, bool _forSale, string _metaDataHash) \n    external tokenExists(_tokenID) onlyOwnerOf(_tokenID) whenNotPaused {\n    // Check input parameters.\n    uint _nameLength = bytes(_name).length;\n    require(_nameLength > 0 && _nameLength <= 50, \"Name length must be between 1 to 50\");\n    uint _metaDataHashLength = bytes(_metaDataHash).length;\n    require(_metaDataHashLength == 46, \"Meta data hash length must be 46.\");\n\n    Scoop storage _scoop = scoops[_tokenID];\n    _scoop.name = _name;\n    _scoop.price = _price;\n    _scoop.forSale = _forSale;\n    _scoop.metaDataHash = _metaDataHash;\n    emit TokenEdited(_tokenID, _name, _price, _forSale, _metaDataHash);\n  }\n  \n  /**\n   * @return tokenID      : Token id.\n   * @return name         : Token name.\n   * @return timestamp    : When it was minted.\n   * @return imageHash    : IPFS hash of the scoop image.\n   * @return price        : The price of the token in wei.\n   * @return forSale      : True if this scoop is for sale.\n   * @return metaDataHash : IPFS hash of the scoop meta data.\n   * @return author       : Address who minted this token.\n   * @return owner        : Address who owns this token.\n   * @return requestor    : Address who is requesting to purchase this token.\n   */\n  function scoop(uint _tokenID) external view returns (uint, string, uint, string, uint, bool, string, address, address, address) {\n    Scoop memory _scoop = scoops[_tokenID];\n    address _owner = tokenOwner[_tokenID];\n    \n    return (_tokenID, _scoop.name, _scoop.timestamp, _scoop.imageHash, _scoop.price, _scoop.forSale, \n      _scoop.metaDataHash, _scoop.author, _owner, _scoop.requestor);\n  }\n  \n  /**\n   * @notice Exected to be used by token buyer.\n   * @notice Request to purchase this token.\n   * @param _tokenID ID of target token.\n   */\n  function request(uint _tokenID) external payable onlyForSaleToken(_tokenID) tokenExists(_tokenID) whenNotPaused {\n    Scoop storage _scoop = scoops[_tokenID];\n    _scoop.requestor = msg.sender;\n    emit Requested(_tokenID);\n  }\n  \n  /**\n   * @notice Exected to be used by token buyer.\n   * @notice Cancel request or approval to purchase this token.\n   * @param _tokenID ID of target token.\n   */\n  function cancel(uint _tokenID) external payable tokenExists(_tokenID) whenNotPaused {\n    Scoop storage _scoop = scoops[_tokenID];\n    _scoop.requestor = address(0);\n    super.clearApproval(tokenOwner[_tokenID], _tokenID);\n    emit Canceled(_tokenID);\n  }\n  \n  /**\n   * @notice Exected to be used by token owner(seller).\n   * @notice Approve to purchase this token.\n   * @param _to Whom you allow to purchase this token.\n   * @param _tokenID ID of target token.\n   */\n  function approve(address _to, uint _tokenID) public tokenExists(_tokenID)  onlyOwnerOf(_tokenID) onlyForSaleToken(_tokenID) whenNotPaused {\n    require(_to == scoops[_tokenID].requestor, \"Tried to approve non requestor.\");\n    super.approve(_to, _tokenID);\n  }\n  \n  /**\n   * @notice Exected to be used by token owner(seller).\n   * @notice Deny to purchase this token.\n   * @param _tokenID ID of target token.\n   */\n  function deny(uint _tokenID) external payable tokenExists(_tokenID)  onlyOwnerOf(_tokenID) whenNotPaused {\n    Scoop storage _scoop = scoops[_tokenID];\n    _scoop.requestor = address(0);\n    emit Denied(_tokenID);\n  }\n  \n  /**\n   * @notice Exected to be used by token buyer.\n   * @notice Purchase token which approved.\n   * @param _tokenID ID of target token.\n   */\n  function purchase(uint _tokenID) external payable tokenExists(_tokenID) onlyForSaleToken(_tokenID) whenNotPaused {\n    address seller = tokenOwner[_tokenID];\n    address buyer = msg.sender;\n    require(seller != buyer, \"Can't transfer to myself.\");\n    require(getApproved(_tokenID) == buyer, \"sender is not approved.\");\n    require(scoops[_tokenID].price == msg.value, \"Value is insufficient.\");\n\n    // Transfer token.\n    safeTransferFrom(seller, buyer, _tokenID);\n\n    // Update token not for sale.\n    Scoop storage _scoop = scoops[_tokenID];\n    _scoop.forSale = false;\n    _scoop.requestor = address(0);\n\n    // Send value to seller by PullPayments contract.\n    if (_scoop.price > 0) {\n      asyncTransfer(seller, _scoop.price);\n    }\n    emit Purchased(_tokenID);\n  }\n\n  /**\n   * @dev This overwrites PullPayment.withdrawPayments to enable to pause.\n   */\n  function withdrawPayments() public whenNotPaused {\n    super.withdrawPayments();\n    emit PaymentsWithdrawed();\n  }\n}",
  "sourcePath": "/work/eth/ScoopMarket/contracts/ScoopMarket.sol",
  "compiler": {
    "name": "solc",
    "version": "0.4.24+commit.e67f0147.Emscripten.clang"
  },
  "schemaVersion": "2.0.1",
  "updatedAt": "2018-08-18T04:24:41.349Z"
}