{
  "contractName": "Scoop",
  "abi": [
    {
      "constant": true,
      "inputs": [
        {
          "name": "_interfaceId",
          "type": "bytes4"
        }
      ],
      "name": "supportsInterface",
      "outputs": [
        {
          "name": "",
          "type": "bool"
        }
      ],
      "payable": false,
      "stateMutability": "view",
      "type": "function"
    },
    {
      "constant": true,
      "inputs": [],
      "name": "name",
      "outputs": [
        {
          "name": "",
          "type": "string"
        }
      ],
      "payable": false,
      "stateMutability": "view",
      "type": "function"
    },
    {
      "constant": true,
      "inputs": [
        {
          "name": "_tokenId",
          "type": "uint256"
        }
      ],
      "name": "getApproved",
      "outputs": [
        {
          "name": "",
          "type": "address"
        }
      ],
      "payable": false,
      "stateMutability": "view",
      "type": "function"
    },
    {
      "constant": true,
      "inputs": [],
      "name": "totalSupply",
      "outputs": [
        {
          "name": "",
          "type": "uint256"
        }
      ],
      "payable": false,
      "stateMutability": "view",
      "type": "function"
    },
    {
      "constant": true,
      "inputs": [],
      "name": "InterfaceId_ERC165",
      "outputs": [
        {
          "name": "",
          "type": "bytes4"
        }
      ],
      "payable": false,
      "stateMutability": "view",
      "type": "function"
    },
    {
      "constant": false,
      "inputs": [
        {
          "name": "_from",
          "type": "address"
        },
        {
          "name": "_to",
          "type": "address"
        },
        {
          "name": "_tokenId",
          "type": "uint256"
        }
      ],
      "name": "transferFrom",
      "outputs": [],
      "payable": false,
      "stateMutability": "nonpayable",
      "type": "function"
    },
    {
      "constant": true,
      "inputs": [
        {
          "name": "_owner",
          "type": "address"
        },
        {
          "name": "_index",
          "type": "uint256"
        }
      ],
      "name": "tokenOfOwnerByIndex",
      "outputs": [
        {
          "name": "",
          "type": "uint256"
        }
      ],
      "payable": false,
      "stateMutability": "view",
      "type": "function"
    },
    {
      "constant": false,
      "inputs": [
        {
          "name": "_from",
          "type": "address"
        },
        {
          "name": "_to",
          "type": "address"
        },
        {
          "name": "_tokenId",
          "type": "uint256"
        }
      ],
      "name": "safeTransferFrom",
      "outputs": [],
      "payable": false,
      "stateMutability": "nonpayable",
      "type": "function"
    },
    {
      "constant": true,
      "inputs": [
        {
          "name": "_tokenId",
          "type": "uint256"
        }
      ],
      "name": "exists",
      "outputs": [
        {
          "name": "",
          "type": "bool"
        }
      ],
      "payable": false,
      "stateMutability": "view",
      "type": "function"
    },
    {
      "constant": true,
      "inputs": [
        {
          "name": "_index",
          "type": "uint256"
        }
      ],
      "name": "tokenByIndex",
      "outputs": [
        {
          "name": "",
          "type": "uint256"
        }
      ],
      "payable": false,
      "stateMutability": "view",
      "type": "function"
    },
    {
      "constant": true,
      "inputs": [
        {
          "name": "_tokenId",
          "type": "uint256"
        }
      ],
      "name": "ownerOf",
      "outputs": [
        {
          "name": "",
          "type": "address"
        }
      ],
      "payable": false,
      "stateMutability": "view",
      "type": "function"
    },
    {
      "constant": true,
      "inputs": [
        {
          "name": "_owner",
          "type": "address"
        }
      ],
      "name": "balanceOf",
      "outputs": [
        {
          "name": "",
          "type": "uint256"
        }
      ],
      "payable": false,
      "stateMutability": "view",
      "type": "function"
    },
    {
      "constant": false,
      "inputs": [],
      "name": "renounceOwnership",
      "outputs": [],
      "payable": false,
      "stateMutability": "nonpayable",
      "type": "function"
    },
    {
      "constant": true,
      "inputs": [],
      "name": "owner",
      "outputs": [
        {
          "name": "",
          "type": "address"
        }
      ],
      "payable": false,
      "stateMutability": "view",
      "type": "function"
    },
    {
      "constant": true,
      "inputs": [],
      "name": "symbol",
      "outputs": [
        {
          "name": "",
          "type": "string"
        }
      ],
      "payable": false,
      "stateMutability": "view",
      "type": "function"
    },
    {
      "constant": false,
      "inputs": [
        {
          "name": "_to",
          "type": "address"
        },
        {
          "name": "_approved",
          "type": "bool"
        }
      ],
      "name": "setApprovalForAll",
      "outputs": [],
      "payable": false,
      "stateMutability": "nonpayable",
      "type": "function"
    },
    {
      "constant": false,
      "inputs": [
        {
          "name": "_from",
          "type": "address"
        },
        {
          "name": "_to",
          "type": "address"
        },
        {
          "name": "_tokenId",
          "type": "uint256"
        },
        {
          "name": "_data",
          "type": "bytes"
        }
      ],
      "name": "safeTransferFrom",
      "outputs": [],
      "payable": false,
      "stateMutability": "nonpayable",
      "type": "function"
    },
    {
      "constant": true,
      "inputs": [],
      "name": "mintCost",
      "outputs": [
        {
          "name": "",
          "type": "uint256"
        }
      ],
      "payable": false,
      "stateMutability": "view",
      "type": "function"
    },
    {
      "constant": true,
      "inputs": [
        {
          "name": "_tokenId",
          "type": "uint256"
        }
      ],
      "name": "tokenURI",
      "outputs": [
        {
          "name": "",
          "type": "string"
        }
      ],
      "payable": false,
      "stateMutability": "view",
      "type": "function"
    },
    {
      "constant": true,
      "inputs": [
        {
          "name": "_owner",
          "type": "address"
        },
        {
          "name": "_operator",
          "type": "address"
        }
      ],
      "name": "isApprovedForAll",
      "outputs": [
        {
          "name": "",
          "type": "bool"
        }
      ],
      "payable": false,
      "stateMutability": "view",
      "type": "function"
    },
    {
      "constant": false,
      "inputs": [
        {
          "name": "_newOwner",
          "type": "address"
        }
      ],
      "name": "transferOwnership",
      "outputs": [],
      "payable": false,
      "stateMutability": "nonpayable",
      "type": "function"
    },
    {
      "inputs": [],
      "payable": false,
      "stateMutability": "nonpayable",
      "type": "constructor"
    },
    {
      "anonymous": false,
      "inputs": [
        {
          "indexed": true,
          "name": "previousOwner",
          "type": "address"
        }
      ],
      "name": "OwnershipRenounced",
      "type": "event"
    },
    {
      "anonymous": false,
      "inputs": [
        {
          "indexed": true,
          "name": "previousOwner",
          "type": "address"
        },
        {
          "indexed": true,
          "name": "newOwner",
          "type": "address"
        }
      ],
      "name": "OwnershipTransferred",
      "type": "event"
    },
    {
      "anonymous": false,
      "inputs": [
        {
          "indexed": true,
          "name": "_from",
          "type": "address"
        },
        {
          "indexed": true,
          "name": "_to",
          "type": "address"
        },
        {
          "indexed": true,
          "name": "_tokenId",
          "type": "uint256"
        }
      ],
      "name": "Transfer",
      "type": "event"
    },
    {
      "anonymous": false,
      "inputs": [
        {
          "indexed": true,
          "name": "_owner",
          "type": "address"
        },
        {
          "indexed": true,
          "name": "_approved",
          "type": "address"
        },
        {
          "indexed": true,
          "name": "_tokenId",
          "type": "uint256"
        }
      ],
      "name": "Approval",
      "type": "event"
    },
    {
      "anonymous": false,
      "inputs": [
        {
          "indexed": true,
          "name": "_owner",
          "type": "address"
        },
        {
          "indexed": true,
          "name": "_operator",
          "type": "address"
        },
        {
          "indexed": false,
          "name": "_approved",
          "type": "bool"
        }
      ],
      "name": "ApprovalForAll",
      "type": "event"
    },
    {
      "constant": false,
      "inputs": [
        {
          "name": "_name",
          "type": "string"
        },
        {
          "name": "_price",
          "type": "uint256"
        },
        {
          "name": "_forSale",
          "type": "bool"
        },
        {
          "name": "_imageURI",
          "type": "string"
        }
      ],
      "name": "mint",
      "outputs": [],
      "payable": true,
      "stateMutability": "payable",
      "type": "function"
    },
    {
      "constant": false,
      "inputs": [
        {
          "name": "_mintCost",
          "type": "uint256"
        }
      ],
      "name": "setMintCost",
      "outputs": [],
      "payable": false,
      "stateMutability": "nonpayable",
      "type": "function"
    },
    {
      "constant": true,
      "inputs": [
        {
          "name": "_address",
          "type": "address"
        }
      ],
      "name": "scoopsOf",
      "outputs": [
        {
          "name": "",
          "type": "uint256[]"
        }
      ],
      "payable": false,
      "stateMutability": "view",
      "type": "function"
    },
    {
      "constant": true,
      "inputs": [],
      "name": "scoopsForSale",
      "outputs": [
        {
          "name": "",
          "type": "bool[]"
        }
      ],
      "payable": false,
      "stateMutability": "view",
      "type": "function"
    },
    {
      "constant": false,
      "inputs": [
        {
          "name": "_tokenID",
          "type": "uint256"
        },
        {
          "name": "_metaDataURI",
          "type": "string"
        }
      ],
      "name": "setTokenMetaDataUri",
      "outputs": [],
      "payable": false,
      "stateMutability": "nonpayable",
      "type": "function"
    },
    {
      "constant": false,
      "inputs": [
        {
          "name": "_tokenID",
          "type": "uint256"
        },
        {
          "name": "_price",
          "type": "uint256"
        }
      ],
      "name": "setTokenPrice",
      "outputs": [],
      "payable": false,
      "stateMutability": "nonpayable",
      "type": "function"
    },
    {
      "constant": false,
      "inputs": [
        {
          "name": "_tokenID",
          "type": "uint256"
        },
        {
          "name": "_forSale",
          "type": "bool"
        }
      ],
      "name": "setTokenForSale",
      "outputs": [],
      "payable": false,
      "stateMutability": "nonpayable",
      "type": "function"
    },
    {
      "constant": true,
      "inputs": [
        {
          "name": "_tokenID",
          "type": "uint256"
        }
      ],
      "name": "scoop",
      "outputs": [
        {
          "name": "",
          "type": "uint256"
        },
        {
          "name": "",
          "type": "string"
        },
        {
          "name": "",
          "type": "uint256"
        },
        {
          "name": "",
          "type": "string"
        },
        {
          "name": "",
          "type": "uint256"
        },
        {
          "name": "",
          "type": "bool"
        },
        {
          "name": "",
          "type": "string"
        },
        {
          "name": "",
          "type": "address"
        },
        {
          "name": "",
          "type": "address"
        }
      ],
      "payable": false,
      "stateMutability": "view",
      "type": "function"
    },
    {
      "constant": false,
      "inputs": [
        {
          "name": "_tokenID",
          "type": "uint256"
        }
      ],
      "name": "request",
      "outputs": [],
      "payable": true,
      "stateMutability": "payable",
      "type": "function"
    },
    {
      "constant": false,
      "inputs": [
        {
          "name": "_to",
          "type": "address"
        },
        {
          "name": "_tokenID",
          "type": "uint256"
        }
      ],
      "name": "approve",
      "outputs": [],
      "payable": false,
      "stateMutability": "nonpayable",
      "type": "function"
    },
    {
      "constant": false,
      "inputs": [
        {
          "name": "_tokenID",
          "type": "uint256"
        }
      ],
      "name": "purchase",
      "outputs": [],
      "payable": true,
      "stateMutability": "payable",
      "type": "function"
    }
  ],
  "bytecode": "0x6080604052662386f26fc10000600e553480156200001c57600080fd5b506040805190810160405280600581526020017f53636f6f700000000000000000000000000000000000000000000000000000008152506040805190810160405280600381526020017f5343500000000000000000000000000000000000000000000000000000000000815250620000c66301ffc9a77c01000000000000000000000000000000000000000000000000000000000262000235640100000000026401000000009004565b620001036380ac58cd7c01000000000000000000000000000000000000000000000000000000000262000235640100000000026401000000009004565b62000140634f558e797c01000000000000000000000000000000000000000000000000000000000262000235640100000000026401000000009004565b816005908051906020019062000158929190620002f3565b50806006908051906020019062000171929190620002f3565b50620001af63780e9d637c01000000000000000000000000000000000000000000000000000000000262000235640100000000026401000000009004565b620001ec635b5e139f7c01000000000000000000000000000000000000000000000000000000000262000235640100000000026401000000009004565b505033600c60006101000a81548173ffffffffffffffffffffffffffffffffffffffff021916908373ffffffffffffffffffffffffffffffffffffffff160217905550620003a2565b63ffffffff7c010000000000000000000000000000000000000000000000000000000002817bffffffffffffffffffffffffffffffffffffffffffffffffffffffff1916141515156200028757600080fd5b6001600080837bffffffffffffffffffffffffffffffffffffffffffffffffffffffff19167bffffffffffffffffffffffffffffffffffffffffffffffffffffffff1916815260200190815260200160002060006101000a81548160ff02191690831515021790555050565b828054600181600116156101000203166002900490600052602060002090601f016020900481019282601f106200033657805160ff191683800117855562000367565b8280016001018555821562000367579182015b828111156200036657825182559160200191906001019062000349565b5b5090506200037691906200037a565b5090565b6200039f91905b808211156200039b57600081600090555060010162000381565b5090565b90565b61365680620003b26000396000f300608060405260043610610196576000357c0100000000000000000000000000000000000000000000000000000000900463ffffffff16806301ffc9a71461019b57806306fdde03146101ff578063081812fc1461028f578063095ea7b3146102fc57806318160ddd1461034957806319fa8f501461037457806323b872dd146103dd5780632bbab2651461044a5780632f745c59146104e257806342842e0e146105435780634390b06d146105b057806347ef2d14146105f55780634f558e791461062e5780634f6ccce7146106735780636352211e146106b45780636cee400c1461072157806370a082311461077d578063715018a6146107d45780637ae7fd91146107eb5780638545f4ea146108575780638da5cb5b1461088457806395d89b41146108db578063a22cb4651461096b578063b88d4fde146109ba578063bdb4b84814610a6d578063c87b56dd14610a98578063d845a4b314610b3e578063e7fa4e2014610b5e578063e985e9c514610d62578063eb685c4714610ddd578063efef39a114610e14578063f2fde38b14610e34575b600080fd5b3480156101a757600080fd5b506101e560048036038101908080357bffffffffffffffffffffffffffffffffffffffffffffffffffffffff19169060200190929190505050610e77565b604051808215151515815260200191505060405180910390f35b34801561020b57600080fd5b50610214610ede565b6040518080602001828103825283818151815260200191508051906020019080838360005b83811015610254578082015181840152602081019050610239565b50505050905090810190601f1680156102815780820380516001836020036101000a031916815260200191505b509250505060405180910390f35b34801561029b57600080fd5b506102ba60048036038101908080359060200190929190505050610f80565b604051808273ffffffffffffffffffffffffffffffffffffffff1673ffffffffffffffffffffffffffffffffffffffff16815260200191505060405180910390f35b34801561030857600080fd5b50610347600480360381019080803573ffffffffffffffffffffffffffffffffffffffff16906020019092919080359060200190929190505050610fbd565b005b34801561035557600080fd5b5061035e611045565b6040518082815260200191505060405180910390f35b34801561038057600080fd5b50610389611052565b60405180827bffffffffffffffffffffffffffffffffffffffffffffffffffffffff19167bffffffffffffffffffffffffffffffffffffffffffffffffffffffff1916815260200191505060405180910390f35b3480156103e957600080fd5b50610448600480360381019080803573ffffffffffffffffffffffffffffffffffffffff169060200190929190803573ffffffffffffffffffffffffffffffffffffffff16906020019092919080359060200190929190505050611079565b005b34801561045657600080fd5b5061048b600480360381019080803573ffffffffffffffffffffffffffffffffffffffff169060200190929190505050611186565b6040518080602001828103825283818151815260200191508051906020019060200280838360005b838110156104ce5780820151818401526020810190506104b3565b505050509050019250505060405180910390f35b3480156104ee57600080fd5b5061052d600480360381019080803573ffffffffffffffffffffffffffffffffffffffff1690602001909291908035906020019092919050505061121d565b6040518082815260200191505060405180910390f35b34801561054f57600080fd5b506105ae600480360381019080803573ffffffffffffffffffffffffffffffffffffffff169060200190929190803573ffffffffffffffffffffffffffffffffffffffff16906020019092919080359060200190929190505050611294565b005b3480156105bc57600080fd5b506105f3600480360381019080803590602001909291908035906020019082018035906020019190919293919293905050506112cc565b005b34801561060157600080fd5b5061062c6004803603810190808035906020019092919080351515906020019092919050505061135f565b005b34801561063a57600080fd5b50610659600480360381019080803590602001909291905050506113f9565b604051808215151515815260200191505060405180910390f35b34801561067f57600080fd5b5061069e6004803603810190808035906020019092919050505061146b565b6040518082815260200191505060405180910390f35b3480156106c057600080fd5b506106df600480360381019080803590602001909291905050506114a3565b604051808273ffffffffffffffffffffffffffffffffffffffff1673ffffffffffffffffffffffffffffffffffffffff16815260200191505060405180910390f35b61077b60048036038101908080359060200190820180359060200191909192939192939080359060200190929190803515159060200190929190803590602001908201803590602001919091929391929390505050611521565b005b34801561078957600080fd5b506107be600480360381019080803573ffffffffffffffffffffffffffffffffffffffff16906020019092919050505061178d565b6040518082815260200191505060405180910390f35b3480156107e057600080fd5b506107e9611811565b005b3480156107f757600080fd5b50610800611916565b6040518080602001828103825283818151815260200191508051906020019060200280838360005b83811015610843578082015181840152602081019050610828565b505050509050019250505060405180910390f35b34801561086357600080fd5b50610882600480360381019080803590602001909291905050506119c9565b005b34801561089057600080fd5b50610899611a2f565b604051808273ffffffffffffffffffffffffffffffffffffffff1673ffffffffffffffffffffffffffffffffffffffff16815260200191505060405180910390f35b3480156108e757600080fd5b506108f0611a55565b6040518080602001828103825283818151815260200191508051906020019080838360005b83811015610930578082015181840152602081019050610915565b50505050905090810190601f16801561095d5780820380516001836020036101000a031916815260200191505b509250505060405180910390f35b34801561097757600080fd5b506109b8600480360381019080803573ffffffffffffffffffffffffffffffffffffffff169060200190929190803515159060200190929190505050611af7565b005b3480156109c657600080fd5b50610a6b600480360381019080803573ffffffffffffffffffffffffffffffffffffffff169060200190929190803573ffffffffffffffffffffffffffffffffffffffff16906020019092919080359060200190929190803590602001908201803590602001908080601f0160208091040260200160405190810160405280939291908181526020018383808284378201915050505050509192919290505050611c33565b005b348015610a7957600080fd5b50610a82611c72565b6040518082815260200191505060405180910390f35b348015610aa457600080fd5b50610ac360048036038101908080359060200190929190505050611c78565b6040518080602001828103825283818151815260200191508051906020019080838360005b83811015610b03578082015181840152602081019050610ae8565b50505050905090810190601f168015610b305780820380516001836020036101000a031916815260200191505b509250505060405180910390f35b610b5c60048036038101908080359060200190929190505050611d41565b005b348015610b6a57600080fd5b50610b8960048036038101908080359060200190929190505050611de4565b604051808a8152602001806020018981526020018060200188815260200187151515158152602001806020018673ffffffffffffffffffffffffffffffffffffffff1673ffffffffffffffffffffffffffffffffffffffff1681526020018573ffffffffffffffffffffffffffffffffffffffff1673ffffffffffffffffffffffffffffffffffffffff16815260200184810384528c818151815260200191508051906020019080838360005b83811015610c51578082015181840152602081019050610c36565b50505050905090810190601f168015610c7e5780820380516001836020036101000a031916815260200191505b5084810383528a818151815260200191508051906020019080838360005b83811015610cb7578082015181840152602081019050610c9c565b50505050905090810190601f168015610ce45780820380516001836020036101000a031916815260200191505b50848103825287818151815260200191508051906020019080838360005b83811015610d1d578082015181840152602081019050610d02565b50505050905090810190601f168015610d4a5780820380516001836020036101000a031916815260200191505b509c5050505050505050505050505060405180910390f35b348015610d6e57600080fd5b50610dc3600480360381019080803573ffffffffffffffffffffffffffffffffffffffff169060200190929190803573ffffffffffffffffffffffffffffffffffffffff16906020019092919050505061213b565b604051808215151515815260200191505060405180910390f35b348015610de957600080fd5b50610e1260048036038101908080359060200190929190803590602001909291905050506121cf565b005b610e3260048036038101908080359060200190929190505050612256565b005b348015610e4057600080fd5b50610e75600480360381019080803573ffffffffffffffffffffffffffffffffffffffff169060200190929190505050612745565b005b6000806000837bffffffffffffffffffffffffffffffffffffffffffffffffffffffff19167bffffffffffffffffffffffffffffffffffffffffffffffffffffffff1916815260200190815260200160002060009054906101000a900460ff169050919050565b606060058054600181600116156101000203166002900480601f016020809104026020016040519081016040528092919081815260200182805460018160011615610100020316600290048015610f765780601f10610f4b57610100808354040283529160200191610f76565b820191906000526020600020905b815481529060010190602001808311610f5957829003601f168201915b5050505050905090565b60006002600083815260200190815260200160002060009054906101000a900473ffffffffffffffffffffffffffffffffffffffff169050919050565b600d81815481101515610fcc57fe5b906000526020600020906008020160070160009054906101000a900473ffffffffffffffffffffffffffffffffffffffff1673ffffffffffffffffffffffffffffffffffffffff168273ffffffffffffffffffffffffffffffffffffffff1614151561103757600080fd5b61104182826127ad565b5050565b6000600980549050905090565b6301ffc9a77c01000000000000000000000000000000000000000000000000000000000281565b8061108433826128f2565b151561108f57600080fd5b600073ffffffffffffffffffffffffffffffffffffffff168473ffffffffffffffffffffffffffffffffffffffff16141515156110cb57600080fd5b600073ffffffffffffffffffffffffffffffffffffffff168373ffffffffffffffffffffffffffffffffffffffff161415151561110757600080fd5b6111118483612987565b61111b8483612a8a565b6111258383612ca2565b818373ffffffffffffffffffffffffffffffffffffffff168573ffffffffffffffffffffffffffffffffffffffff167fddf252ad1be2c89b69c2b068fc378daa952ba7f163c4a11628f55a4df523b3ef60405160405180910390a450505050565b6060600760008373ffffffffffffffffffffffffffffffffffffffff1673ffffffffffffffffffffffffffffffffffffffff16815260200190815260200160002080548060200260200160405190810160405280929190818152602001828054801561121157602002820191906000526020600020905b8154815260200190600101908083116111fd575b50505050509050919050565b60006112288361178d565b8210151561123557600080fd5b600760008473ffffffffffffffffffffffffffffffffffffffff1673ffffffffffffffffffffffffffffffffffffffff1681526020019081526020016000208281548110151561128157fe5b9060005260206000200154905092915050565b8061129f33826128f2565b15156112aa57600080fd5b6112c68484846020604051908101604052806000815250611c33565b50505050565b6000833373ffffffffffffffffffffffffffffffffffffffff166112ef826114a3565b73ffffffffffffffffffffffffffffffffffffffff1614151561131157600080fd5b61131a856113f9565b151561132557600080fd5b600d8581548110151561133457fe5b906000526020600020906008020191508383836005019190611357929190613465565b505050505050565b6000823373ffffffffffffffffffffffffffffffffffffffff16611382826114a3565b73ffffffffffffffffffffffffffffffffffffffff161415156113a457600080fd5b6113ad846113f9565b15156113b857600080fd5b600d848154811015156113c757fe5b90600052602060002090600802019150828260040160006101000a81548160ff02191690831515021790555050505050565b6000806001600084815260200190815260200160002060009054906101000a900473ffffffffffffffffffffffffffffffffffffffff169050600073ffffffffffffffffffffffffffffffffffffffff168173ffffffffffffffffffffffffffffffffffffffff161415915050919050565b6000611475611045565b8210151561148257600080fd5b60098281548110151561149157fe5b90600052602060002001549050919050565b6000806001600084815260200190815260200160002060009054906101000a900473ffffffffffffffffffffffffffffffffffffffff169050600073ffffffffffffffffffffffffffffffffffffffff168173ffffffffffffffffffffffffffffffffffffffff161415151561151857600080fd5b80915050919050565b6115296134e5565b6000600e543414151561153b57600080fd5b6101006040519081016040528089898080601f016020809104026020016040519081016040528093929190818152602001838380828437820191505050505050815260200142815260200185858080601f01602080910402602001604051908101604052809392919081815260200183838082843782019150505050505081526020018781526020018615158152602001602060405190810160405280600081525081526020013373ffffffffffffffffffffffffffffffffffffffff168152602001600073ffffffffffffffffffffffffffffffffffffffff1681525091506117776001600d8490806001815401808255809150509060018203906000526020600020906008020160009091929091909150600082015181600001908051906020019061166a929190613559565b50602082015181600101556040820151816002019080519060200190611691929190613559565b506060820151816003015560808201518160040160006101000a81548160ff02191690831515021790555060a08201518160050190805190602001906116d8929190613559565b5060c08201518160060160006101000a81548173ffffffffffffffffffffffffffffffffffffffff021916908373ffffffffffffffffffffffffffffffffffffffff16021790555060e08201518160070160006101000a81548173ffffffffffffffffffffffffffffffffffffffff021916908373ffffffffffffffffffffffffffffffffffffffff1602179055505050612d7990919063ffffffff16565b90506117833382612d92565b5050505050505050565b60008073ffffffffffffffffffffffffffffffffffffffff168273ffffffffffffffffffffffffffffffffffffffff16141515156117ca57600080fd5b600360008373ffffffffffffffffffffffffffffffffffffffff1673ffffffffffffffffffffffffffffffffffffffff168152602001908152602001600020549050919050565b600c60009054906101000a900473ffffffffffffffffffffffffffffffffffffffff1673ffffffffffffffffffffffffffffffffffffffff163373ffffffffffffffffffffffffffffffffffffffff1614151561186d57600080fd5b600c60009054906101000a900473ffffffffffffffffffffffffffffffffffffffff1673ffffffffffffffffffffffffffffffffffffffff167ff8df31144d9c2f0f6b59d69b8b98abd5459d07f2742c4df920b25aae33c6482060405160405180910390a26000600c60006101000a81548173ffffffffffffffffffffffffffffffffffffffff021916908373ffffffffffffffffffffffffffffffffffffffff160217905550565b6060806000600d8054905060405190808252806020026020018201604052801561194f5781602001602082028038833980820191505090505b509150600090505b600d805490508110156119c157600d8181548110151561197357fe5b906000526020600020906008020160040160009054906101000a900460ff1682828151811015156119a057fe5b90602001906020020190151590811515815250508080600101915050611957565b819250505090565b600c60009054906101000a900473ffffffffffffffffffffffffffffffffffffffff1673ffffffffffffffffffffffffffffffffffffffff163373ffffffffffffffffffffffffffffffffffffffff16141515611a2557600080fd5b80600e8190555050565b600c60009054906101000a900473ffffffffffffffffffffffffffffffffffffffff1681565b606060068054600181600116156101000203166002900480601f016020809104026020016040519081016040528092919081815260200182805460018160011615610100020316600290048015611aed5780601f10611ac257610100808354040283529160200191611aed565b820191906000526020600020905b815481529060010190602001808311611ad057829003601f168201915b5050505050905090565b3373ffffffffffffffffffffffffffffffffffffffff168273ffffffffffffffffffffffffffffffffffffffff1614151515611b3257600080fd5b80600460003373ffffffffffffffffffffffffffffffffffffffff1673ffffffffffffffffffffffffffffffffffffffff16815260200190815260200160002060008473ffffffffffffffffffffffffffffffffffffffff1673ffffffffffffffffffffffffffffffffffffffff16815260200190815260200160002060006101000a81548160ff0219169083151502179055508173ffffffffffffffffffffffffffffffffffffffff163373ffffffffffffffffffffffffffffffffffffffff167f17307eab39ab6107e8899845ad3d59bd9653f200f220920489ca2b5937696c3183604051808215151515815260200191505060405180910390a35050565b81611c3e33826128f2565b1515611c4957600080fd5b611c54858585611079565b611c6085858585612de9565b1515611c6b57600080fd5b5050505050565b600e5481565b6060611c83826113f9565b1515611c8e57600080fd5b600b60008381526020019081526020016000208054600181600116156101000203166002900480601f016020809104026020016040519081016040528092919081815260200182805460018160011615610100020316600290048015611d355780601f10611d0a57610100808354040283529160200191611d35565b820191906000526020600020905b815481529060010190602001808311611d1857829003601f168201915b50505050509050919050565b600034600a600d84815481101515611d5557fe5b906000526020600020906008020160030154811515611d7057fe5b0411151515611d7e57600080fd5b600d82815481101515611d8d57fe5b90600052602060002090600802019050338160070160006101000a81548173ffffffffffffffffffffffffffffffffffffffff021916908373ffffffffffffffffffffffffffffffffffffffff1602179055505050565b60006060600060606000806060600080611dfc6134e5565b600d8b815481101515611e0b57fe5b90600052602060002090600802016101006040519081016040529081600082018054600181600116156101000203166002900480601f016020809104026020016040519081016040528092919081815260200182805460018160011615610100020316600290048015611ebf5780601f10611e9457610100808354040283529160200191611ebf565b820191906000526020600020905b815481529060010190602001808311611ea257829003601f168201915b5050505050815260200160018201548152602001600282018054600181600116156101000203166002900480601f016020809104026020016040519081016040528092919081815260200182805460018160011615610100020316600290048015611f6b5780601f10611f4057610100808354040283529160200191611f6b565b820191906000526020600020905b815481529060010190602001808311611f4e57829003601f168201915b50505050508152602001600382015481526020016004820160009054906101000a900460ff16151515158152602001600582018054600181600116156101000203166002900480601f0160208091040260200160405190810160405280929190818152602001828054600181600116156101000203166002900480156120325780601f1061200757610100808354040283529160200191612032565b820191906000526020600020905b81548152906001019060200180831161201557829003601f168201915b505050505081526020016006820160009054906101000a900473ffffffffffffffffffffffffffffffffffffffff1673ffffffffffffffffffffffffffffffffffffffff1673ffffffffffffffffffffffffffffffffffffffff1681526020016007820160009054906101000a900473ffffffffffffffffffffffffffffffffffffffff1673ffffffffffffffffffffffffffffffffffffffff1673ffffffffffffffffffffffffffffffffffffffff168152505090508a816000015182602001518360400151846060015185608001518660a001518760c001518860e00151879750859550829250995099509950995099509950995099509950509193959799909294969850565b6000600460008473ffffffffffffffffffffffffffffffffffffffff1673ffffffffffffffffffffffffffffffffffffffff16815260200190815260200160002060008373ffffffffffffffffffffffffffffffffffffffff1673ffffffffffffffffffffffffffffffffffffffff16815260200190815260200160002060009054906101000a900460ff16905092915050565b6000823373ffffffffffffffffffffffffffffffffffffffff166121f2826114a3565b73ffffffffffffffffffffffffffffffffffffffff1614151561221457600080fd5b61221d846113f9565b151561222857600080fd5b600d8481548110151561223757fe5b9060005260206000209060080201915082826003018190555050505050565b6000806122616134e5565b60006001600086815260200190815260200160002060009054906101000a900473ffffffffffffffffffffffffffffffffffffffff1693503392508273ffffffffffffffffffffffffffffffffffffffff168473ffffffffffffffffffffffffffffffffffffffff16141515156122d757600080fd5b34600d868154811015156122e757fe5b9060005260206000209060080201600301541115151561230657600080fd5b60011515600d8681548110151561231957fe5b906000526020600020906008020160040160009054906101000a900460ff16151514151561234657600080fd5b600d8581548110151561235557fe5b90600052602060002090600802016101006040519081016040529081600082018054600181600116156101000203166002900480601f0160208091040260200160405190810160405280929190818152602001828054600181600116156101000203166002900480156124095780601f106123de57610100808354040283529160200191612409565b820191906000526020600020905b8154815290600101906020018083116123ec57829003601f168201915b5050505050815260200160018201548152602001600282018054600181600116156101000203166002900480601f0160208091040260200160405190810160405280929190818152602001828054600181600116156101000203166002900480156124b55780601f1061248a576101008083540402835291602001916124b5565b820191906000526020600020905b81548152906001019060200180831161249857829003601f168201915b50505050508152602001600382015481526020016004820160009054906101000a900460ff16151515158152602001600582018054600181600116156101000203166002900480601f01602080910402602001604051908101604052809291908181526020018280546001816001161561010002031660029004801561257c5780601f106125515761010080835404028352916020019161257c565b820191906000526020600020905b81548152906001019060200180831161255f57829003601f168201915b505050505081526020016006820160009054906101000a900473ffffffffffffffffffffffffffffffffffffffff1673ffffffffffffffffffffffffffffffffffffffff1673ffffffffffffffffffffffffffffffffffffffff1681526020016007820160009054906101000a900473ffffffffffffffffffffffffffffffffffffffff1673ffffffffffffffffffffffffffffffffffffffff1673ffffffffffffffffffffffffffffffffffffffff168152505091508160600151905080341015151561264957600080fd5b612654848487611294565b6000600d8681548110151561266557fe5b906000526020600020906008020160040160006101000a81548160ff0219169083151502179055506000600d8681548110151561269e57fe5b906000526020600020906008020160070160006101000a81548173ffffffffffffffffffffffffffffffffffffffff021916908373ffffffffffffffffffffffffffffffffffffffff160217905550600081111561273e578273ffffffffffffffffffffffffffffffffffffffff166108fc829081150290604051600060405180830381858888f1935050505015801561273c573d6000803e3d6000fd5b505b5050505050565b600c60009054906101000a900473ffffffffffffffffffffffffffffffffffffffff1673ffffffffffffffffffffffffffffffffffffffff163373ffffffffffffffffffffffffffffffffffffffff161415156127a157600080fd5b6127aa8161300b565b50565b60006127b8826114a3565b90508073ffffffffffffffffffffffffffffffffffffffff168373ffffffffffffffffffffffffffffffffffffffff16141515156127f557600080fd5b8073ffffffffffffffffffffffffffffffffffffffff163373ffffffffffffffffffffffffffffffffffffffff1614806128355750612834813361213b565b5b151561284057600080fd5b826002600084815260200190815260200160002060006101000a81548173ffffffffffffffffffffffffffffffffffffffff021916908373ffffffffffffffffffffffffffffffffffffffff160217905550818373ffffffffffffffffffffffffffffffffffffffff168273ffffffffffffffffffffffffffffffffffffffff167f8c5be1e5ebec7d5bd14f71427d1e84f3dd0314c0f7b2291e5b200ac8c7c3b92560405160405180910390a4505050565b6000806128fe836114a3565b90508073ffffffffffffffffffffffffffffffffffffffff168473ffffffffffffffffffffffffffffffffffffffff16148061296d57508373ffffffffffffffffffffffffffffffffffffffff1661295584610f80565b73ffffffffffffffffffffffffffffffffffffffff16145b8061297e575061297d818561213b565b5b91505092915050565b8173ffffffffffffffffffffffffffffffffffffffff166129a7826114a3565b73ffffffffffffffffffffffffffffffffffffffff161415156129c957600080fd5b600073ffffffffffffffffffffffffffffffffffffffff166002600083815260200190815260200160002060009054906101000a900473ffffffffffffffffffffffffffffffffffffffff1673ffffffffffffffffffffffffffffffffffffffff16141515612a865760006002600083815260200190815260200160002060006101000a81548173ffffffffffffffffffffffffffffffffffffffff021916908373ffffffffffffffffffffffffffffffffffffffff1602179055505b5050565b6000806000612a998585613107565b60086000858152602001908152602001600020549250612b056001600760008873ffffffffffffffffffffffffffffffffffffffff1673ffffffffffffffffffffffffffffffffffffffff16815260200190815260200160002080549050612d7990919063ffffffff16565b9150600760008673ffffffffffffffffffffffffffffffffffffffff1673ffffffffffffffffffffffffffffffffffffffff16815260200190815260200160002082815481101515612b5357fe5b9060005260206000200154905080600760008773ffffffffffffffffffffffffffffffffffffffff1673ffffffffffffffffffffffffffffffffffffffff16815260200190815260200160002084815481101515612bad57fe5b90600052602060002001819055506000600760008773ffffffffffffffffffffffffffffffffffffffff1673ffffffffffffffffffffffffffffffffffffffff16815260200190815260200160002083815481101515612c0957fe5b9060005260206000200181905550600760008673ffffffffffffffffffffffffffffffffffffffff1673ffffffffffffffffffffffffffffffffffffffff168152602001908152602001600020805480919060019003612c6991906135d9565b50600060086000868152602001908152602001600020819055508260086000838152602001908152602001600020819055505050505050565b6000612cae8383613236565b600760008473ffffffffffffffffffffffffffffffffffffffff1673ffffffffffffffffffffffffffffffffffffffff168152602001908152602001600020805490509050600760008473ffffffffffffffffffffffffffffffffffffffff1673ffffffffffffffffffffffffffffffffffffffff168152602001908152602001600020829080600181540180825580915050906001820390600052602060002001600090919290919091505550806008600084815260200190815260200160002081905550505050565b6000828211151515612d8757fe5b818303905092915050565b612d9c8282613390565b600980549050600a60008381526020019081526020016000208190555060098190806001815401808255809150509060018203906000526020600020016000909192909190915055505050565b600080612e0b8573ffffffffffffffffffffffffffffffffffffffff16613436565b1515612e1a5760019150613002565b8473ffffffffffffffffffffffffffffffffffffffff1663150b7a02338887876040518563ffffffff167c0100000000000000000000000000000000000000000000000000000000028152600401808573ffffffffffffffffffffffffffffffffffffffff1673ffffffffffffffffffffffffffffffffffffffff1681526020018473ffffffffffffffffffffffffffffffffffffffff1673ffffffffffffffffffffffffffffffffffffffff16815260200183815260200180602001828103825283818151815260200191508051906020019080838360005b83811015612f0f578082015181840152602081019050612ef4565b50505050905090810190601f168015612f3c5780820380516001836020036101000a031916815260200191505b5095505050505050602060405180830381600087803b158015612f5e57600080fd5b505af1158015612f72573d6000803e3d6000fd5b505050506040513d6020811015612f8857600080fd5b8101908080519060200190929190505050905063150b7a027c0100000000000000000000000000000000000000000000000000000000027bffffffffffffffffffffffffffffffffffffffffffffffffffffffff1916817bffffffffffffffffffffffffffffffffffffffffffffffffffffffff19161491505b50949350505050565b600073ffffffffffffffffffffffffffffffffffffffff168173ffffffffffffffffffffffffffffffffffffffff161415151561304757600080fd5b8073ffffffffffffffffffffffffffffffffffffffff16600c60009054906101000a900473ffffffffffffffffffffffffffffffffffffffff1673ffffffffffffffffffffffffffffffffffffffff167f8be0079c531659141344cd1fd0a4f28419497f9722a3daafe3b4186f6b6457e060405160405180910390a380600c60006101000a81548173ffffffffffffffffffffffffffffffffffffffff021916908373ffffffffffffffffffffffffffffffffffffffff16021790555050565b8173ffffffffffffffffffffffffffffffffffffffff16613127826114a3565b73ffffffffffffffffffffffffffffffffffffffff1614151561314957600080fd5b61319c6001600360008573ffffffffffffffffffffffffffffffffffffffff1673ffffffffffffffffffffffffffffffffffffffff16815260200190815260200160002054612d7990919063ffffffff16565b600360008473ffffffffffffffffffffffffffffffffffffffff1673ffffffffffffffffffffffffffffffffffffffff1681526020019081526020016000208190555060006001600083815260200190815260200160002060006101000a81548173ffffffffffffffffffffffffffffffffffffffff021916908373ffffffffffffffffffffffffffffffffffffffff1602179055505050565b600073ffffffffffffffffffffffffffffffffffffffff166001600083815260200190815260200160002060009054906101000a900473ffffffffffffffffffffffffffffffffffffffff1673ffffffffffffffffffffffffffffffffffffffff161415156132a457600080fd5b816001600083815260200190815260200160002060006101000a81548173ffffffffffffffffffffffffffffffffffffffff021916908373ffffffffffffffffffffffffffffffffffffffff1602179055506133496001600360008573ffffffffffffffffffffffffffffffffffffffff1673ffffffffffffffffffffffffffffffffffffffff1681526020019081526020016000205461344990919063ffffffff16565b600360008473ffffffffffffffffffffffffffffffffffffffff1673ffffffffffffffffffffffffffffffffffffffff168152602001908152602001600020819055505050565b600073ffffffffffffffffffffffffffffffffffffffff168273ffffffffffffffffffffffffffffffffffffffff16141515156133cc57600080fd5b6133d68282612ca2565b808273ffffffffffffffffffffffffffffffffffffffff16600073ffffffffffffffffffffffffffffffffffffffff167fddf252ad1be2c89b69c2b068fc378daa952ba7f163c4a11628f55a4df523b3ef60405160405180910390a45050565b600080823b905060008111915050919050565b6000818301905082811015151561345c57fe5b80905092915050565b828054600181600116156101000203166002900490600052602060002090601f016020900481019282601f106134a657803560ff19168380011785556134d4565b828001600101855582156134d4579182015b828111156134d35782358255916020019190600101906134b8565b5b5090506134e19190613605565b5090565b610100604051908101604052806060815260200160008152602001606081526020016000815260200160001515815260200160608152602001600073ffffffffffffffffffffffffffffffffffffffff168152602001600073ffffffffffffffffffffffffffffffffffffffff1681525090565b828054600181600116156101000203166002900490600052602060002090601f016020900481019282601f1061359a57805160ff19168380011785556135c8565b828001600101855582156135c8579182015b828111156135c75782518255916020019190600101906135ac565b5b5090506135d59190613605565b5090565b815481835581811115613600578183600052602060002091820191016135ff9190613605565b5b505050565b61362791905b8082111561362357600081600090555060010161360b565b5090565b905600a165627a7a72305820bb869006d08db308e5dbd3d583bb746d3444c90c4925c427652d7a091fdc19920029",
  "source": "pragma solidity ^0.4.23;\n\n// TODO: Delete ../node_modules/\nimport \"../node_modules/openzeppelin-solidity/contracts/token/ERC721/ERC721Token.sol\";\nimport \"../node_modules/openzeppelin-solidity/contracts/ownership/Ownable.sol\";\nimport \"../node_modules/openzeppelin-solidity/contracts/math/SafeMath.sol\";\n\ncontract Scoop is ERC721Token, Ownable {\n    using SafeMath for uint;\n\n    struct ScoopToken {\n        string  name;\n        uint    timestamp;\n        string  imageURI;\n        uint    price;\n        bool    forSale;\n        string  metaDataURI;\n        address author;\n        address requestor;\n    }\n    ScoopToken[] scoops;\n\n    uint public mintCost = 10 ** 16 wei;\n\n    constructor() public ERC721Token(\"Scoop\", \"SCP\") {}\n\n    function mint(string _name, uint _price, bool _forSale, string _imageURI) external payable {\n        require(msg.value == mintCost);\n\n        ScoopToken memory _scoop = ScoopToken(_name, block.timestamp, _imageURI, _price, _forSale, \"\", msg.sender, address(0));\n        uint tokenID = scoops.push(_scoop).sub(1);\n\n        super._mint(msg.sender, tokenID);\n    }\n\n    function setMintCost(uint _mintCost) external onlyOwner {\n        mintCost = _mintCost;\n    }\n\n    function scoopsOf(address _address) external view returns (uint[]) {\n        return ownedTokens[_address];\n    }\n\n    function scoopsForSale() external view returns (bool[]) {\n        bool[] memory result = new bool[](scoops.length);\n        for (uint i = 0; i < scoops.length; i ++) {\n            result[i] = scoops[i].forSale;\n        }\n        return result;\n    }\n\n    function setTokenMetaDataUri(uint256 _tokenID, string _metaDataURI) external onlyOwnerOf(_tokenID) {\n        require(exists(_tokenID));\n        ScoopToken storage _scoop = scoops[_tokenID];\n        _scoop.metaDataURI = _metaDataURI;\n    }\n\n    function setTokenPrice(uint256 _tokenID, uint _price) external onlyOwnerOf(_tokenID) {\n        require(exists(_tokenID));\n        ScoopToken storage _scoop = scoops[_tokenID];\n        _scoop.price = _price;\n    }\n\n    function setTokenForSale(uint256 _tokenID, bool _forSale) external onlyOwnerOf(_tokenID) {\n        require(exists(_tokenID));\n        ScoopToken storage _scoop = scoops[_tokenID];\n        _scoop.forSale = _forSale;\n    }\n\n    function scoop(uint _tokenID) external view returns (uint, string, uint, string, uint, bool, string, address, address) {\n        ScoopToken memory _scoop = scoops[_tokenID];\n        return (_tokenID, _scoop.name, _scoop.timestamp, _scoop.imageURI, _scoop.price, _scoop.forSale, _scoop.metaDataURI, _scoop.author, _scoop.requestor);\n    }\n\n    function request(uint256 _tokenID) external payable {\n        require(scoops[_tokenID].price / 10 <= msg.value);\n        ScoopToken storage _scoop = scoops[_tokenID];\n        _scoop.requestor = msg.sender;\n    }\n\n    function approve(address _to, uint256 _tokenID) public {\n        require(_to == scoops[_tokenID].requestor);\n        super.approve(_to, _tokenID);\n    }\n\n    function purchase(uint256 _tokenID) external payable {\n        address oldOwner = tokenOwner[_tokenID];\n        address newOwner = msg.sender;\n        require(oldOwner != newOwner);\n        require(scoops[_tokenID].price <= msg.value);\n        require(scoops[_tokenID].forSale == true);\n        \n        ScoopToken memory _scoop = scoops[_tokenID];\n        uint price = _scoop.price;\n        require(msg.value >= price);\n\n        safeTransferFrom(oldOwner, newOwner, _tokenID);\n\n        scoops[_tokenID].forSale = false;\n        scoops[_tokenID].requestor = address(0);\n\n        if (price > 0) {\n            newOwner.transfer(price);\n        }\n    }\n}",
  "sourcePath": "/work/eth/ScoopMarket/contracts/Scoop.sol",
  "compiler": {
    "name": "solc",
    "version": "0.4.24+commit.e67f0147.Emscripten.clang"
  },
  "schemaVersion": "2.0.1",
  "updatedAt": "2018-08-08T23:31:27.484Z"
}